{
	"firstc.sol": {
		"ownable": {
			"abi": [
				{
					"inputs": [],
					"stateMutability": "nonpayable",
					"type": "constructor"
				},
				{
					"inputs": [],
					"name": "anyOneAccess",
					"outputs": [],
					"stateMutability": "nonpayable",
					"type": "function"
				},
				{
					"inputs": [],
					"name": "onlyAccessOwner",
					"outputs": [],
					"stateMutability": "nonpayable",
					"type": "function"
				},
				{
					"inputs": [],
					"name": "owner",
					"outputs": [
						{
							"internalType": "address",
							"name": "",
							"type": "address"
						}
					],
					"stateMutability": "view",
					"type": "function"
				},
				{
					"inputs": [
						{
							"internalType": "address",
							"name": "_newOwner",
							"type": "address"
						}
					],
					"name": "setOwner",
					"outputs": [],
					"stateMutability": "nonpayable",
					"type": "function"
				}
			],
			"devdoc": {
				"kind": "dev",
				"methods": {},
				"version": 1
			},
			"evm": {
				"assembly": "    /* \"firstc.sol\":93:573  contract ownable{\r... */\n  mstore(0x40, 0x80)\n    /* \"firstc.sol\":137:176  constructor(){\r... */\n  callvalue\n  dup1\n  iszero\n  tag_1\n  jumpi\n  0x00\n  dup1\n  revert\ntag_1:\n  pop\n    /* \"firstc.sol\":162:172  msg.sender */\n  caller\n    /* \"firstc.sol\":156:161  owner */\n  0x00\n  dup1\n    /* \"firstc.sol\":156:172  owner=msg.sender */\n  0x0100\n  exp\n  dup2\n  sload\n  dup2\n  0xffffffffffffffffffffffffffffffffffffffff\n  mul\n  not\n  and\n  swap1\n  dup4\n  0xffffffffffffffffffffffffffffffffffffffff\n  and\n  mul\n  or\n  swap1\n  sstore\n  pop\n    /* \"firstc.sol\":93:573  contract ownable{\r... */\n  dataSize(sub_0)\n  dup1\n  dataOffset(sub_0)\n  0x00\n  codecopy\n  0x00\n  return\nstop\n\nsub_0: assembly {\n        /* \"firstc.sol\":93:573  contract ownable{\r... */\n      mstore(0x40, 0x80)\n      callvalue\n      dup1\n      iszero\n      tag_1\n      jumpi\n      0x00\n      dup1\n      revert\n    tag_1:\n      pop\n      jumpi(tag_2, lt(calldatasize, 0x04))\n      shr(0xe0, calldataload(0x00))\n      dup1\n      0x13af4035\n      eq\n      tag_3\n      jumpi\n      dup1\n      0x53dae509\n      eq\n      tag_4\n      jumpi\n      dup1\n      0x8da5cb5b\n      eq\n      tag_5\n      jumpi\n      dup1\n      0xefa11404\n      eq\n      tag_6\n      jumpi\n    tag_2:\n      0x00\n      dup1\n      revert\n        /* \"firstc.sol\":262:397  function setOwner(address _newOwner) public onlyOwner{\r... */\n    tag_3:\n      tag_7\n      0x04\n      dup1\n      calldatasize\n      sub\n      dup2\n      add\n      swap1\n      tag_8\n      swap2\n      swap1\n      tag_9\n      jump\t// in\n    tag_8:\n      tag_10\n      jump\t// in\n    tag_7:\n      stop\n        /* \"firstc.sol\":400:485  function onlyAccessOwner() public onlyOwner{\r... */\n    tag_4:\n      tag_11\n      tag_12\n      jump\t// in\n    tag_11:\n      stop\n        /* \"firstc.sol\":112:132  address public owner */\n    tag_5:\n      tag_13\n      tag_14\n      jump\t// in\n    tag_13:\n      mload(0x40)\n      tag_15\n      swap2\n      swap1\n      tag_16\n      jump\t// in\n    tag_15:\n      mload(0x40)\n      dup1\n      swap2\n      sub\n      swap1\n      return\n        /* \"firstc.sol\":489:566  function anyOneAccess() public{\r... */\n    tag_6:\n      tag_17\n      tag_18\n      jump\t// in\n    tag_17:\n      stop\n        /* \"firstc.sol\":262:397  function setOwner(address _newOwner) public onlyOwner{\r... */\n    tag_10:\n        /* \"firstc.sol\":228:233  owner */\n      0x00\n      dup1\n      sload\n      swap1\n      0x0100\n      exp\n      swap1\n      div\n      0xffffffffffffffffffffffffffffffffffffffff\n      and\n        /* \"firstc.sol\":214:233  msg.sender == owner */\n      0xffffffffffffffffffffffffffffffffffffffff\n      and\n        /* \"firstc.sol\":214:224  msg.sender */\n      caller\n        /* \"firstc.sol\":214:233  msg.sender == owner */\n      0xffffffffffffffffffffffffffffffffffffffff\n      and\n      eq\n        /* \"firstc.sol\":206:246  require(msg.sender == owner,\"not owner\") */\n      tag_20\n      jumpi\n      mload(0x40)\n      0x08c379a000000000000000000000000000000000000000000000000000000000\n      dup2\n      mstore\n      0x04\n      add\n      tag_21\n      swap1\n      tag_22\n      jump\t// in\n    tag_21:\n      mload(0x40)\n      dup1\n      swap2\n      sub\n      swap1\n      revert\n    tag_20:\n        /* \"firstc.sol\":352:353  0 */\n      0x00\n        /* \"firstc.sol\":331:354  _newOwner != address(0) */\n      0xffffffffffffffffffffffffffffffffffffffff\n      and\n        /* \"firstc.sol\":331:340  _newOwner */\n      dup2\n        /* \"firstc.sol\":331:354  _newOwner != address(0) */\n      0xffffffffffffffffffffffffffffffffffffffff\n      and\n      eq\n      iszero\n        /* \"firstc.sol\":323:365  require(_newOwner != address(0),\"invalid\") */\n      tag_24\n      jumpi\n      mload(0x40)\n      0x08c379a000000000000000000000000000000000000000000000000000000000\n      dup2\n      mstore\n      0x04\n      add\n      tag_25\n      swap1\n      tag_26\n      jump\t// in\n    tag_25:\n      mload(0x40)\n      dup1\n      swap2\n      sub\n      swap1\n      revert\n    tag_24:\n        /* \"firstc.sol\":381:390  _newOwner */\n      dup1\n        /* \"firstc.sol\":373:378  owner */\n      0x00\n      dup1\n        /* \"firstc.sol\":373:390  owner = _newOwner */\n      0x0100\n      exp\n      dup2\n      sload\n      dup2\n      0xffffffffffffffffffffffffffffffffffffffff\n      mul\n      not\n      and\n      swap1\n      dup4\n      0xffffffffffffffffffffffffffffffffffffffff\n      and\n      mul\n      or\n      swap1\n      sstore\n      pop\n        /* \"firstc.sol\":262:397  function setOwner(address _newOwner) public onlyOwner{\r... */\n      pop\n      jump\t// out\n        /* \"firstc.sol\":400:485  function onlyAccessOwner() public onlyOwner{\r... */\n    tag_12:\n        /* \"firstc.sol\":228:233  owner */\n      0x00\n      dup1\n      sload\n      swap1\n      0x0100\n      exp\n      swap1\n      div\n      0xffffffffffffffffffffffffffffffffffffffff\n      and\n        /* \"firstc.sol\":214:233  msg.sender == owner */\n      0xffffffffffffffffffffffffffffffffffffffff\n      and\n        /* \"firstc.sol\":214:224  msg.sender */\n      caller\n        /* \"firstc.sol\":214:233  msg.sender == owner */\n      0xffffffffffffffffffffffffffffffffffffffff\n      and\n      eq\n        /* \"firstc.sol\":206:246  require(msg.sender == owner,\"not owner\") */\n      tag_28\n      jumpi\n      mload(0x40)\n      0x08c379a000000000000000000000000000000000000000000000000000000000\n      dup2\n      mstore\n      0x04\n      add\n      tag_29\n      swap1\n      tag_22\n      jump\t// in\n    tag_29:\n      mload(0x40)\n      dup1\n      swap2\n      sub\n      swap1\n      revert\n    tag_28:\n        /* \"firstc.sol\":451:480  console.log(\"owner accessed\") */\n      tag_31\n      mload(0x40)\n      dup1\n      0x40\n      add\n      0x40\n      mstore\n      dup1\n      0x0e\n      dup2\n      mstore\n      0x20\n      add\n      0x6f776e6572206163636573736564000000000000000000000000000000000000\n      dup2\n      mstore\n      pop\n        /* \"firstc.sol\":451:462  console.log */\n      tag_32\n        /* \"firstc.sol\":451:480  console.log(\"owner accessed\") */\n      jump\t// in\n    tag_31:\n        /* \"firstc.sol\":400:485  function onlyAccessOwner() public onlyOwner{\r... */\n      jump\t// out\n        /* \"firstc.sol\":112:132  address public owner */\n    tag_14:\n      0x00\n      dup1\n      sload\n      swap1\n      0x0100\n      exp\n      swap1\n      div\n      0xffffffffffffffffffffffffffffffffffffffff\n      and\n      dup2\n      jump\t// out\n        /* \"firstc.sol\":489:566  function anyOneAccess() public{\r... */\n    tag_18:\n        /* \"firstc.sol\":527:561  console.log(\"other user accessed\") */\n      tag_34\n      mload(0x40)\n      dup1\n      0x40\n      add\n      0x40\n      mstore\n      dup1\n      0x13\n      dup2\n      mstore\n      0x20\n      add\n      0x6f74686572207573657220616363657373656400000000000000000000000000\n      dup2\n      mstore\n      pop\n        /* \"firstc.sol\":527:538  console.log */\n      tag_32\n        /* \"firstc.sol\":527:561  console.log(\"other user accessed\") */\n      jump\t// in\n    tag_34:\n        /* \"firstc.sol\":489:566  function anyOneAccess() public{\r... */\n      jump\t// out\n        /* \"hardhat/console.sol\":5054:5166  function log(string memory p0) internal view {... */\n    tag_32:\n        /* \"hardhat/console.sol\":5103:5162  _sendLogPayload(abi.encodeWithSignature(\"log(string)\", p0)) */\n      tag_36\n        /* \"hardhat/console.sol\":5158:5160  p0 */\n      dup2\n        /* \"hardhat/console.sol\":5119:5161  abi.encodeWithSignature(\"log(string)\", p0) */\n      add(0x24, mload(0x40))\n      tag_37\n      swap2\n      swap1\n      tag_38\n      jump\t// in\n    tag_37:\n      mload(0x40)\n      0x20\n      dup2\n      dup4\n      sub\n      sub\n      dup2\n      mstore\n      swap1\n      0x40\n      mstore\n      and(not(0xffffffffffffffffffffffffffffffffffffffffffffffffffffffff), 0x41304fac00000000000000000000000000000000000000000000000000000000)\n      0x20\n      dup3\n      add\n      dup1\n      mload\n      0xffffffffffffffffffffffffffffffffffffffffffffffffffffffff\n      dup4\n      dup2\n      dup4\n      and\n      or\n      dup4\n      mstore\n      pop\n      pop\n      pop\n      pop\n        /* \"hardhat/console.sol\":5103:5118  _sendLogPayload */\n      tag_39\n        /* \"hardhat/console.sol\":5103:5162  _sendLogPayload(abi.encodeWithSignature(\"log(string)\", p0)) */\n      jump\t// in\n    tag_36:\n        /* \"hardhat/console.sol\":5054:5166  function log(string memory p0) internal view {... */\n      pop\n      jump\t// out\n        /* \"hardhat/console.sol\":176:464  function _sendLogPayload(bytes memory payload) private view {... */\n    tag_39:\n        /* \"hardhat/console.sol\":240:261  uint256 payloadLength */\n      0x00\n        /* \"hardhat/console.sol\":264:271  payload */\n      dup2\n        /* \"hardhat/console.sol\":264:278  payload.length */\n      mload\n        /* \"hardhat/console.sol\":240:278  uint256 payloadLength = payload.length */\n      swap1\n      pop\n        /* \"hardhat/console.sol\":282:304  address consoleAddress */\n      0x00\n        /* \"hardhat/console.sol\":129:171  0x000000000000000000636F6e736F6c652e6c6f67 */\n      0x636f6e736f6c652e6c6f67\n        /* \"hardhat/console.sol\":282:322  address consoleAddress = CONSOLE_ADDRESS */\n      swap1\n      pop\n        /* \"hardhat/console.sol\":373:375  32 */\n      0x20\n        /* \"hardhat/console.sol\":364:371  payload */\n      dup4\n        /* \"hardhat/console.sol\":360:376  add(payload, 32) */\n      add\n        /* \"hardhat/console.sol\":455:456  0 */\n      0x00\n        /* \"hardhat/console.sol\":452:453  0 */\n      dup1\n        /* \"hardhat/console.sol\":437:450  payloadLength */\n      dup5\n        /* \"hardhat/console.sol\":423:435  payloadStart */\n      dup4\n        /* \"hardhat/console.sol\":407:421  consoleAddress */\n      dup6\n        /* \"hardhat/console.sol\":400:405  gas() */\n      gas\n        /* \"hardhat/console.sol\":389:457  staticcall(gas(), consoleAddress, payloadStart, payloadLength, 0, 0) */\n      staticcall\n        /* \"hardhat/console.sol\":335:461  {... */\n      pop\n      pop\n      pop\n      pop\n        /* \"hardhat/console.sol\":176:464  function _sendLogPayload(bytes memory payload) private view {... */\n      pop\n      jump\t// out\n        /* \"#utility.yul\":7:146   */\n    tag_42:\n        /* \"#utility.yul\":53:58   */\n      0x00\n        /* \"#utility.yul\":91:97   */\n      dup2\n        /* \"#utility.yul\":78:98   */\n      calldataload\n        /* \"#utility.yul\":69:98   */\n      swap1\n      pop\n        /* \"#utility.yul\":107:140   */\n      tag_44\n        /* \"#utility.yul\":134:139   */\n      dup2\n        /* \"#utility.yul\":107:140   */\n      tag_45\n      jump\t// in\n    tag_44:\n        /* \"#utility.yul\":7:146   */\n      swap3\n      swap2\n      pop\n      pop\n      jump\t// out\n        /* \"#utility.yul\":152:481   */\n    tag_9:\n        /* \"#utility.yul\":211:217   */\n      0x00\n        /* \"#utility.yul\":260:262   */\n      0x20\n        /* \"#utility.yul\":248:257   */\n      dup3\n        /* \"#utility.yul\":239:246   */\n      dup5\n        /* \"#utility.yul\":235:258   */\n      sub\n        /* \"#utility.yul\":231:263   */\n      slt\n        /* \"#utility.yul\":228:347   */\n      iszero\n      tag_47\n      jumpi\n        /* \"#utility.yul\":266:345   */\n      tag_48\n      tag_49\n      jump\t// in\n    tag_48:\n        /* \"#utility.yul\":228:347   */\n    tag_47:\n        /* \"#utility.yul\":386:387   */\n      0x00\n        /* \"#utility.yul\":411:464   */\n      tag_50\n        /* \"#utility.yul\":456:463   */\n      dup5\n        /* \"#utility.yul\":447:453   */\n      dup3\n        /* \"#utility.yul\":436:445   */\n      dup6\n        /* \"#utility.yul\":432:454   */\n      add\n        /* \"#utility.yul\":411:464   */\n      tag_42\n      jump\t// in\n    tag_50:\n        /* \"#utility.yul\":401:464   */\n      swap2\n      pop\n        /* \"#utility.yul\":357:474   */\n      pop\n        /* \"#utility.yul\":152:481   */\n      swap3\n      swap2\n      pop\n      pop\n      jump\t// out\n        /* \"#utility.yul\":487:605   */\n    tag_51:\n        /* \"#utility.yul\":574:598   */\n      tag_53\n        /* \"#utility.yul\":592:597   */\n      dup2\n        /* \"#utility.yul\":574:598   */\n      tag_54\n      jump\t// in\n    tag_53:\n        /* \"#utility.yul\":569:572   */\n      dup3\n        /* \"#utility.yul\":562:599   */\n      mstore\n        /* \"#utility.yul\":487:605   */\n      pop\n      pop\n      jump\t// out\n        /* \"#utility.yul\":611:975   */\n    tag_55:\n        /* \"#utility.yul\":699:702   */\n      0x00\n        /* \"#utility.yul\":727:766   */\n      tag_57\n        /* \"#utility.yul\":760:765   */\n      dup3\n        /* \"#utility.yul\":727:766   */\n      tag_58\n      jump\t// in\n    tag_57:\n        /* \"#utility.yul\":782:853   */\n      tag_59\n        /* \"#utility.yul\":846:852   */\n      dup2\n        /* \"#utility.yul\":841:844   */\n      dup6\n        /* \"#utility.yul\":782:853   */\n      tag_60\n      jump\t// in\n    tag_59:\n        /* \"#utility.yul\":775:853   */\n      swap4\n      pop\n        /* \"#utility.yul\":862:914   */\n      tag_61\n        /* \"#utility.yul\":907:913   */\n      dup2\n        /* \"#utility.yul\":902:905   */\n      dup6\n        /* \"#utility.yul\":895:899   */\n      0x20\n        /* \"#utility.yul\":888:893   */\n      dup7\n        /* \"#utility.yul\":884:900   */\n      add\n        /* \"#utility.yul\":862:914   */\n      tag_62\n      jump\t// in\n    tag_61:\n        /* \"#utility.yul\":939:968   */\n      tag_63\n        /* \"#utility.yul\":961:967   */\n      dup2\n        /* \"#utility.yul\":939:968   */\n      tag_64\n      jump\t// in\n    tag_63:\n        /* \"#utility.yul\":934:937   */\n      dup5\n        /* \"#utility.yul\":930:969   */\n      add\n        /* \"#utility.yul\":923:969   */\n      swap2\n      pop\n        /* \"#utility.yul\":703:975   */\n      pop\n        /* \"#utility.yul\":611:975   */\n      swap3\n      swap2\n      pop\n      pop\n      jump\t// out\n        /* \"#utility.yul\":981:1346   */\n    tag_65:\n        /* \"#utility.yul\":1123:1126   */\n      0x00\n        /* \"#utility.yul\":1144:1210   */\n      tag_67\n        /* \"#utility.yul\":1208:1209   */\n      0x09\n        /* \"#utility.yul\":1203:1206   */\n      dup4\n        /* \"#utility.yul\":1144:1210   */\n      tag_60\n      jump\t// in\n    tag_67:\n        /* \"#utility.yul\":1137:1210   */\n      swap2\n      pop\n        /* \"#utility.yul\":1219:1312   */\n      tag_68\n        /* \"#utility.yul\":1308:1311   */\n      dup3\n        /* \"#utility.yul\":1219:1312   */\n      tag_69\n      jump\t// in\n    tag_68:\n        /* \"#utility.yul\":1337:1339   */\n      0x20\n        /* \"#utility.yul\":1332:1335   */\n      dup3\n        /* \"#utility.yul\":1328:1340   */\n      add\n        /* \"#utility.yul\":1321:1340   */\n      swap1\n      pop\n        /* \"#utility.yul\":981:1346   */\n      swap2\n      swap1\n      pop\n      jump\t// out\n        /* \"#utility.yul\":1352:1717   */\n    tag_70:\n        /* \"#utility.yul\":1494:1497   */\n      0x00\n        /* \"#utility.yul\":1515:1581   */\n      tag_72\n        /* \"#utility.yul\":1579:1580   */\n      0x07\n        /* \"#utility.yul\":1574:1577   */\n      dup4\n        /* \"#utility.yul\":1515:1581   */\n      tag_60\n      jump\t// in\n    tag_72:\n        /* \"#utility.yul\":1508:1581   */\n      swap2\n      pop\n        /* \"#utility.yul\":1590:1683   */\n      tag_73\n        /* \"#utility.yul\":1679:1682   */\n      dup3\n        /* \"#utility.yul\":1590:1683   */\n      tag_74\n      jump\t// in\n    tag_73:\n        /* \"#utility.yul\":1708:1710   */\n      0x20\n        /* \"#utility.yul\":1703:1706   */\n      dup3\n        /* \"#utility.yul\":1699:1711   */\n      add\n        /* \"#utility.yul\":1692:1711   */\n      swap1\n      pop\n        /* \"#utility.yul\":1352:1717   */\n      swap2\n      swap1\n      pop\n      jump\t// out\n        /* \"#utility.yul\":1723:1945   */\n    tag_16:\n        /* \"#utility.yul\":1816:1820   */\n      0x00\n        /* \"#utility.yul\":1854:1856   */\n      0x20\n        /* \"#utility.yul\":1843:1852   */\n      dup3\n        /* \"#utility.yul\":1839:1857   */\n      add\n        /* \"#utility.yul\":1831:1857   */\n      swap1\n      pop\n        /* \"#utility.yul\":1867:1938   */\n      tag_76\n        /* \"#utility.yul\":1935:1936   */\n      0x00\n        /* \"#utility.yul\":1924:1933   */\n      dup4\n        /* \"#utility.yul\":1920:1937   */\n      add\n        /* \"#utility.yul\":1911:1917   */\n      dup5\n        /* \"#utility.yul\":1867:1938   */\n      tag_51\n      jump\t// in\n    tag_76:\n        /* \"#utility.yul\":1723:1945   */\n      swap3\n      swap2\n      pop\n      pop\n      jump\t// out\n        /* \"#utility.yul\":1951:2264   */\n    tag_38:\n        /* \"#utility.yul\":2064:2068   */\n      0x00\n        /* \"#utility.yul\":2102:2104   */\n      0x20\n        /* \"#utility.yul\":2091:2100   */\n      dup3\n        /* \"#utility.yul\":2087:2105   */\n      add\n        /* \"#utility.yul\":2079:2105   */\n      swap1\n      pop\n        /* \"#utility.yul\":2151:2160   */\n      dup2\n        /* \"#utility.yul\":2145:2149   */\n      dup2\n        /* \"#utility.yul\":2141:2161   */\n      sub\n        /* \"#utility.yul\":2137:2138   */\n      0x00\n        /* \"#utility.yul\":2126:2135   */\n      dup4\n        /* \"#utility.yul\":2122:2139   */\n      add\n        /* \"#utility.yul\":2115:2162   */\n      mstore\n        /* \"#utility.yul\":2179:2257   */\n      tag_78\n        /* \"#utility.yul\":2252:2256   */\n      dup2\n        /* \"#utility.yul\":2243:2249   */\n      dup5\n        /* \"#utility.yul\":2179:2257   */\n      tag_55\n      jump\t// in\n    tag_78:\n        /* \"#utility.yul\":2171:2257   */\n      swap1\n      pop\n        /* \"#utility.yul\":1951:2264   */\n      swap3\n      swap2\n      pop\n      pop\n      jump\t// out\n        /* \"#utility.yul\":2270:2689   */\n    tag_22:\n        /* \"#utility.yul\":2436:2440   */\n      0x00\n        /* \"#utility.yul\":2474:2476   */\n      0x20\n        /* \"#utility.yul\":2463:2472   */\n      dup3\n        /* \"#utility.yul\":2459:2477   */\n      add\n        /* \"#utility.yul\":2451:2477   */\n      swap1\n      pop\n        /* \"#utility.yul\":2523:2532   */\n      dup2\n        /* \"#utility.yul\":2517:2521   */\n      dup2\n        /* \"#utility.yul\":2513:2533   */\n      sub\n        /* \"#utility.yul\":2509:2510   */\n      0x00\n        /* \"#utility.yul\":2498:2507   */\n      dup4\n        /* \"#utility.yul\":2494:2511   */\n      add\n        /* \"#utility.yul\":2487:2534   */\n      mstore\n        /* \"#utility.yul\":2551:2682   */\n      tag_80\n        /* \"#utility.yul\":2677:2681   */\n      dup2\n        /* \"#utility.yul\":2551:2682   */\n      tag_65\n      jump\t// in\n    tag_80:\n        /* \"#utility.yul\":2543:2682   */\n      swap1\n      pop\n        /* \"#utility.yul\":2270:2689   */\n      swap2\n      swap1\n      pop\n      jump\t// out\n        /* \"#utility.yul\":2695:3114   */\n    tag_26:\n        /* \"#utility.yul\":2861:2865   */\n      0x00\n        /* \"#utility.yul\":2899:2901   */\n      0x20\n        /* \"#utility.yul\":2888:2897   */\n      dup3\n        /* \"#utility.yul\":2884:2902   */\n      add\n        /* \"#utility.yul\":2876:2902   */\n      swap1\n      pop\n        /* \"#utility.yul\":2948:2957   */\n      dup2\n        /* \"#utility.yul\":2942:2946   */\n      dup2\n        /* \"#utility.yul\":2938:2958   */\n      sub\n        /* \"#utility.yul\":2934:2935   */\n      0x00\n        /* \"#utility.yul\":2923:2932   */\n      dup4\n        /* \"#utility.yul\":2919:2936   */\n      add\n        /* \"#utility.yul\":2912:2959   */\n      mstore\n        /* \"#utility.yul\":2976:3107   */\n      tag_82\n        /* \"#utility.yul\":3102:3106   */\n      dup2\n        /* \"#utility.yul\":2976:3107   */\n      tag_70\n      jump\t// in\n    tag_82:\n        /* \"#utility.yul\":2968:3107   */\n      swap1\n      pop\n        /* \"#utility.yul\":2695:3114   */\n      swap2\n      swap1\n      pop\n      jump\t// out\n        /* \"#utility.yul\":3201:3300   */\n    tag_58:\n        /* \"#utility.yul\":3253:3259   */\n      0x00\n        /* \"#utility.yul\":3287:3292   */\n      dup2\n        /* \"#utility.yul\":3281:3293   */\n      mload\n        /* \"#utility.yul\":3271:3293   */\n      swap1\n      pop\n        /* \"#utility.yul\":3201:3300   */\n      swap2\n      swap1\n      pop\n      jump\t// out\n        /* \"#utility.yul\":3306:3475   */\n    tag_60:\n        /* \"#utility.yul\":3390:3401   */\n      0x00\n        /* \"#utility.yul\":3424:3430   */\n      dup3\n        /* \"#utility.yul\":3419:3422   */\n      dup3\n        /* \"#utility.yul\":3412:3431   */\n      mstore\n        /* \"#utility.yul\":3464:3468   */\n      0x20\n        /* \"#utility.yul\":3459:3462   */\n      dup3\n        /* \"#utility.yul\":3455:3469   */\n      add\n        /* \"#utility.yul\":3440:3469   */\n      swap1\n      pop\n        /* \"#utility.yul\":3306:3475   */\n      swap3\n      swap2\n      pop\n      pop\n      jump\t// out\n        /* \"#utility.yul\":3481:3577   */\n    tag_54:\n        /* \"#utility.yul\":3518:3525   */\n      0x00\n        /* \"#utility.yul\":3547:3571   */\n      tag_88\n        /* \"#utility.yul\":3565:3570   */\n      dup3\n        /* \"#utility.yul\":3547:3571   */\n      tag_89\n      jump\t// in\n    tag_88:\n        /* \"#utility.yul\":3536:3571   */\n      swap1\n      pop\n        /* \"#utility.yul\":3481:3577   */\n      swap2\n      swap1\n      pop\n      jump\t// out\n        /* \"#utility.yul\":3583:3709   */\n    tag_89:\n        /* \"#utility.yul\":3620:3627   */\n      0x00\n        /* \"#utility.yul\":3660:3702   */\n      0xffffffffffffffffffffffffffffffffffffffff\n        /* \"#utility.yul\":3653:3658   */\n      dup3\n        /* \"#utility.yul\":3649:3703   */\n      and\n        /* \"#utility.yul\":3638:3703   */\n      swap1\n      pop\n        /* \"#utility.yul\":3583:3709   */\n      swap2\n      swap1\n      pop\n      jump\t// out\n        /* \"#utility.yul\":3715:4022   */\n    tag_62:\n        /* \"#utility.yul\":3783:3784   */\n      0x00\n        /* \"#utility.yul\":3793:3906   */\n    tag_92:\n        /* \"#utility.yul\":3807:3813   */\n      dup4\n        /* \"#utility.yul\":3804:3805   */\n      dup2\n        /* \"#utility.yul\":3801:3814   */\n      lt\n        /* \"#utility.yul\":3793:3906   */\n      iszero\n      tag_94\n      jumpi\n        /* \"#utility.yul\":3892:3893   */\n      dup1\n        /* \"#utility.yul\":3887:3890   */\n      dup3\n        /* \"#utility.yul\":3883:3894   */\n      add\n        /* \"#utility.yul\":3877:3895   */\n      mload\n        /* \"#utility.yul\":3873:3874   */\n      dup2\n        /* \"#utility.yul\":3868:3871   */\n      dup5\n        /* \"#utility.yul\":3864:3875   */\n      add\n        /* \"#utility.yul\":3857:3896   */\n      mstore\n        /* \"#utility.yul\":3829:3831   */\n      0x20\n        /* \"#utility.yul\":3826:3827   */\n      dup2\n        /* \"#utility.yul\":3822:3832   */\n      add\n        /* \"#utility.yul\":3817:3832   */\n      swap1\n      pop\n        /* \"#utility.yul\":3793:3906   */\n      jump(tag_92)\n    tag_94:\n        /* \"#utility.yul\":3924:3930   */\n      dup4\n        /* \"#utility.yul\":3921:3922   */\n      dup2\n        /* \"#utility.yul\":3918:3931   */\n      gt\n        /* \"#utility.yul\":3915:4016   */\n      iszero\n      tag_95\n      jumpi\n        /* \"#utility.yul\":4004:4005   */\n      0x00\n        /* \"#utility.yul\":3995:4001   */\n      dup5\n        /* \"#utility.yul\":3990:3993   */\n      dup5\n        /* \"#utility.yul\":3986:4002   */\n      add\n        /* \"#utility.yul\":3979:4006   */\n      mstore\n        /* \"#utility.yul\":3915:4016   */\n    tag_95:\n        /* \"#utility.yul\":3764:4022   */\n      pop\n        /* \"#utility.yul\":3715:4022   */\n      pop\n      pop\n      pop\n      jump\t// out\n        /* \"#utility.yul\":4151:4268   */\n    tag_49:\n        /* \"#utility.yul\":4260:4261   */\n      0x00\n        /* \"#utility.yul\":4257:4258   */\n      dup1\n        /* \"#utility.yul\":4250:4262   */\n      revert\n        /* \"#utility.yul\":4274:4376   */\n    tag_64:\n        /* \"#utility.yul\":4315:4321   */\n      0x00\n        /* \"#utility.yul\":4366:4368   */\n      0x1f\n        /* \"#utility.yul\":4362:4369   */\n      not\n        /* \"#utility.yul\":4357:4359   */\n      0x1f\n        /* \"#utility.yul\":4350:4355   */\n      dup4\n        /* \"#utility.yul\":4346:4360   */\n      add\n        /* \"#utility.yul\":4342:4370   */\n      and\n        /* \"#utility.yul\":4332:4370   */\n      swap1\n      pop\n        /* \"#utility.yul\":4274:4376   */\n      swap2\n      swap1\n      pop\n      jump\t// out\n        /* \"#utility.yul\":4382:4541   */\n    tag_69:\n        /* \"#utility.yul\":4522:4533   */\n      0x6e6f74206f776e65720000000000000000000000000000000000000000000000\n        /* \"#utility.yul\":4518:4519   */\n      0x00\n        /* \"#utility.yul\":4510:4516   */\n      dup3\n        /* \"#utility.yul\":4506:4520   */\n      add\n        /* \"#utility.yul\":4499:4534   */\n      mstore\n        /* \"#utility.yul\":4382:4541   */\n      pop\n      jump\t// out\n        /* \"#utility.yul\":4547:4704   */\n    tag_74:\n        /* \"#utility.yul\":4687:4696   */\n      0x696e76616c696400000000000000000000000000000000000000000000000000\n        /* \"#utility.yul\":4683:4684   */\n      0x00\n        /* \"#utility.yul\":4675:4681   */\n      dup3\n        /* \"#utility.yul\":4671:4685   */\n      add\n        /* \"#utility.yul\":4664:4697   */\n      mstore\n        /* \"#utility.yul\":4547:4704   */\n      pop\n      jump\t// out\n        /* \"#utility.yul\":4710:4832   */\n    tag_45:\n        /* \"#utility.yul\":4783:4807   */\n      tag_103\n        /* \"#utility.yul\":4801:4806   */\n      dup2\n        /* \"#utility.yul\":4783:4807   */\n      tag_54\n      jump\t// in\n    tag_103:\n        /* \"#utility.yul\":4776:4781   */\n      dup2\n        /* \"#utility.yul\":4773:4808   */\n      eq\n        /* \"#utility.yul\":4763:4826   */\n      tag_104\n      jumpi\n        /* \"#utility.yul\":4822:4823   */\n      0x00\n        /* \"#utility.yul\":4819:4820   */\n      dup1\n        /* \"#utility.yul\":4812:4824   */\n      revert\n        /* \"#utility.yul\":4763:4826   */\n    tag_104:\n        /* \"#utility.yul\":4710:4832   */\n      pop\n      jump\t// out\n\n    auxdata: 0xa2646970667358221220c7fe1c8ecf570eca5dd5d393b164a49f7ba3ed736c82ba403e3edbe8f7b700ee64736f6c63430008070033\n}\n",
				"bytecode": {
					"linkReferences": {},
					"object": "608060405234801561001057600080fd5b50336000806101000a81548173ffffffffffffffffffffffffffffffffffffffff021916908373ffffffffffffffffffffffffffffffffffffffff160217905550610657806100606000396000f3fe608060405234801561001057600080fd5b506004361061004c5760003560e01c806313af40351461005157806353dae5091461006d5780638da5cb5b14610077578063efa1140414610095575b600080fd5b61006b600480360381019061006691906103e9565b61009f565b005b6100756101e0565b005b61007f6102ae565b60405161008c91906104a4565b60405180910390f35b61009d6102d2565b005b60008054906101000a900473ffffffffffffffffffffffffffffffffffffffff1673ffffffffffffffffffffffffffffffffffffffff163373ffffffffffffffffffffffffffffffffffffffff161461012d576040517f08c379a0000000000000000000000000000000000000000000000000000000008152600401610124906104e1565b60405180910390fd5b600073ffffffffffffffffffffffffffffffffffffffff168173ffffffffffffffffffffffffffffffffffffffff16141561019d576040517f08c379a000000000000000000000000000000000000000000000000000000000815260040161019490610501565b60405180910390fd5b806000806101000a81548173ffffffffffffffffffffffffffffffffffffffff021916908373ffffffffffffffffffffffffffffffffffffffff16021790555050565b60008054906101000a900473ffffffffffffffffffffffffffffffffffffffff1673ffffffffffffffffffffffffffffffffffffffff163373ffffffffffffffffffffffffffffffffffffffff161461026e576040517f08c379a0000000000000000000000000000000000000000000000000000000008152600401610265906104e1565b60405180910390fd5b6102ac6040518060400160405280600e81526020017f6f776e6572206163636573736564000000000000000000000000000000000000815250610312565b565b60008054906101000a900473ffffffffffffffffffffffffffffffffffffffff1681565b6103106040518060400160405280601381526020017f6f74686572207573657220616363657373656400000000000000000000000000815250610312565b565b6103a88160405160240161032691906104bf565b6040516020818303038152906040527f41304fac000000000000000000000000000000000000000000000000000000007bffffffffffffffffffffffffffffffffffffffffffffffffffffffff19166020820180517bffffffffffffffffffffffffffffffffffffffffffffffffffffffff83818316178352505050506103ab565b50565b60008151905060006a636f6e736f6c652e6c6f679050602083016000808483855afa5050505050565b6000813590506103e38161060a565b92915050565b6000602082840312156103ff576103fe6105a2565b5b600061040d848285016103d4565b91505092915050565b61041f8161053d565b82525050565b600061043082610521565b61043a818561052c565b935061044a81856020860161056f565b610453816105a7565b840191505092915050565b600061046b60098361052c565b9150610476826105b8565b602082019050919050565b600061048e60078361052c565b9150610499826105e1565b602082019050919050565b60006020820190506104b96000830184610416565b92915050565b600060208201905081810360008301526104d98184610425565b905092915050565b600060208201905081810360008301526104fa8161045e565b9050919050565b6000602082019050818103600083015261051a81610481565b9050919050565b600081519050919050565b600082825260208201905092915050565b60006105488261054f565b9050919050565b600073ffffffffffffffffffffffffffffffffffffffff82169050919050565b60005b8381101561058d578082015181840152602081019050610572565b8381111561059c576000848401525b50505050565b600080fd5b6000601f19601f8301169050919050565b7f6e6f74206f776e65720000000000000000000000000000000000000000000000600082015250565b7f696e76616c696400000000000000000000000000000000000000000000000000600082015250565b6106138161053d565b811461061e57600080fd5b5056fea2646970667358221220c7fe1c8ecf570eca5dd5d393b164a49f7ba3ed736c82ba403e3edbe8f7b700ee64736f6c63430008070033",
					"opcodes": "PUSH1 0x80 PUSH1 0x40 MSTORE CALLVALUE DUP1 ISZERO PUSH2 0x10 JUMPI PUSH1 0x0 DUP1 REVERT JUMPDEST POP CALLER PUSH1 0x0 DUP1 PUSH2 0x100 EXP DUP2 SLOAD DUP2 PUSH20 0xFFFFFFFFFFFFFFFFFFFFFFFFFFFFFFFFFFFFFFFF MUL NOT AND SWAP1 DUP4 PUSH20 0xFFFFFFFFFFFFFFFFFFFFFFFFFFFFFFFFFFFFFFFF AND MUL OR SWAP1 SSTORE POP PUSH2 0x657 DUP1 PUSH2 0x60 PUSH1 0x0 CODECOPY PUSH1 0x0 RETURN INVALID PUSH1 0x80 PUSH1 0x40 MSTORE CALLVALUE DUP1 ISZERO PUSH2 0x10 JUMPI PUSH1 0x0 DUP1 REVERT JUMPDEST POP PUSH1 0x4 CALLDATASIZE LT PUSH2 0x4C JUMPI PUSH1 0x0 CALLDATALOAD PUSH1 0xE0 SHR DUP1 PUSH4 0x13AF4035 EQ PUSH2 0x51 JUMPI DUP1 PUSH4 0x53DAE509 EQ PUSH2 0x6D JUMPI DUP1 PUSH4 0x8DA5CB5B EQ PUSH2 0x77 JUMPI DUP1 PUSH4 0xEFA11404 EQ PUSH2 0x95 JUMPI JUMPDEST PUSH1 0x0 DUP1 REVERT JUMPDEST PUSH2 0x6B PUSH1 0x4 DUP1 CALLDATASIZE SUB DUP2 ADD SWAP1 PUSH2 0x66 SWAP2 SWAP1 PUSH2 0x3E9 JUMP JUMPDEST PUSH2 0x9F JUMP JUMPDEST STOP JUMPDEST PUSH2 0x75 PUSH2 0x1E0 JUMP JUMPDEST STOP JUMPDEST PUSH2 0x7F PUSH2 0x2AE JUMP JUMPDEST PUSH1 0x40 MLOAD PUSH2 0x8C SWAP2 SWAP1 PUSH2 0x4A4 JUMP JUMPDEST PUSH1 0x40 MLOAD DUP1 SWAP2 SUB SWAP1 RETURN JUMPDEST PUSH2 0x9D PUSH2 0x2D2 JUMP JUMPDEST STOP JUMPDEST PUSH1 0x0 DUP1 SLOAD SWAP1 PUSH2 0x100 EXP SWAP1 DIV PUSH20 0xFFFFFFFFFFFFFFFFFFFFFFFFFFFFFFFFFFFFFFFF AND PUSH20 0xFFFFFFFFFFFFFFFFFFFFFFFFFFFFFFFFFFFFFFFF AND CALLER PUSH20 0xFFFFFFFFFFFFFFFFFFFFFFFFFFFFFFFFFFFFFFFF AND EQ PUSH2 0x12D JUMPI PUSH1 0x40 MLOAD PUSH32 0x8C379A000000000000000000000000000000000000000000000000000000000 DUP2 MSTORE PUSH1 0x4 ADD PUSH2 0x124 SWAP1 PUSH2 0x4E1 JUMP JUMPDEST PUSH1 0x40 MLOAD DUP1 SWAP2 SUB SWAP1 REVERT JUMPDEST PUSH1 0x0 PUSH20 0xFFFFFFFFFFFFFFFFFFFFFFFFFFFFFFFFFFFFFFFF AND DUP2 PUSH20 0xFFFFFFFFFFFFFFFFFFFFFFFFFFFFFFFFFFFFFFFF AND EQ ISZERO PUSH2 0x19D JUMPI PUSH1 0x40 MLOAD PUSH32 0x8C379A000000000000000000000000000000000000000000000000000000000 DUP2 MSTORE PUSH1 0x4 ADD PUSH2 0x194 SWAP1 PUSH2 0x501 JUMP JUMPDEST PUSH1 0x40 MLOAD DUP1 SWAP2 SUB SWAP1 REVERT JUMPDEST DUP1 PUSH1 0x0 DUP1 PUSH2 0x100 EXP DUP2 SLOAD DUP2 PUSH20 0xFFFFFFFFFFFFFFFFFFFFFFFFFFFFFFFFFFFFFFFF MUL NOT AND SWAP1 DUP4 PUSH20 0xFFFFFFFFFFFFFFFFFFFFFFFFFFFFFFFFFFFFFFFF AND MUL OR SWAP1 SSTORE POP POP JUMP JUMPDEST PUSH1 0x0 DUP1 SLOAD SWAP1 PUSH2 0x100 EXP SWAP1 DIV PUSH20 0xFFFFFFFFFFFFFFFFFFFFFFFFFFFFFFFFFFFFFFFF AND PUSH20 0xFFFFFFFFFFFFFFFFFFFFFFFFFFFFFFFFFFFFFFFF AND CALLER PUSH20 0xFFFFFFFFFFFFFFFFFFFFFFFFFFFFFFFFFFFFFFFF AND EQ PUSH2 0x26E JUMPI PUSH1 0x40 MLOAD PUSH32 0x8C379A000000000000000000000000000000000000000000000000000000000 DUP2 MSTORE PUSH1 0x4 ADD PUSH2 0x265 SWAP1 PUSH2 0x4E1 JUMP JUMPDEST PUSH1 0x40 MLOAD DUP1 SWAP2 SUB SWAP1 REVERT JUMPDEST PUSH2 0x2AC PUSH1 0x40 MLOAD DUP1 PUSH1 0x40 ADD PUSH1 0x40 MSTORE DUP1 PUSH1 0xE DUP2 MSTORE PUSH1 0x20 ADD PUSH32 0x6F776E6572206163636573736564000000000000000000000000000000000000 DUP2 MSTORE POP PUSH2 0x312 JUMP JUMPDEST JUMP JUMPDEST PUSH1 0x0 DUP1 SLOAD SWAP1 PUSH2 0x100 EXP SWAP1 DIV PUSH20 0xFFFFFFFFFFFFFFFFFFFFFFFFFFFFFFFFFFFFFFFF AND DUP2 JUMP JUMPDEST PUSH2 0x310 PUSH1 0x40 MLOAD DUP1 PUSH1 0x40 ADD PUSH1 0x40 MSTORE DUP1 PUSH1 0x13 DUP2 MSTORE PUSH1 0x20 ADD PUSH32 0x6F74686572207573657220616363657373656400000000000000000000000000 DUP2 MSTORE POP PUSH2 0x312 JUMP JUMPDEST JUMP JUMPDEST PUSH2 0x3A8 DUP2 PUSH1 0x40 MLOAD PUSH1 0x24 ADD PUSH2 0x326 SWAP2 SWAP1 PUSH2 0x4BF JUMP JUMPDEST PUSH1 0x40 MLOAD PUSH1 0x20 DUP2 DUP4 SUB SUB DUP2 MSTORE SWAP1 PUSH1 0x40 MSTORE PUSH32 0x41304FAC00000000000000000000000000000000000000000000000000000000 PUSH28 0xFFFFFFFFFFFFFFFFFFFFFFFFFFFFFFFFFFFFFFFFFFFFFFFFFFFFFFFF NOT AND PUSH1 0x20 DUP3 ADD DUP1 MLOAD PUSH28 0xFFFFFFFFFFFFFFFFFFFFFFFFFFFFFFFFFFFFFFFFFFFFFFFFFFFFFFFF DUP4 DUP2 DUP4 AND OR DUP4 MSTORE POP POP POP POP PUSH2 0x3AB JUMP JUMPDEST POP JUMP JUMPDEST PUSH1 0x0 DUP2 MLOAD SWAP1 POP PUSH1 0x0 PUSH11 0x636F6E736F6C652E6C6F67 SWAP1 POP PUSH1 0x20 DUP4 ADD PUSH1 0x0 DUP1 DUP5 DUP4 DUP6 GAS STATICCALL POP POP POP POP POP JUMP JUMPDEST PUSH1 0x0 DUP2 CALLDATALOAD SWAP1 POP PUSH2 0x3E3 DUP2 PUSH2 0x60A JUMP JUMPDEST SWAP3 SWAP2 POP POP JUMP JUMPDEST PUSH1 0x0 PUSH1 0x20 DUP3 DUP5 SUB SLT ISZERO PUSH2 0x3FF JUMPI PUSH2 0x3FE PUSH2 0x5A2 JUMP JUMPDEST JUMPDEST PUSH1 0x0 PUSH2 0x40D DUP5 DUP3 DUP6 ADD PUSH2 0x3D4 JUMP JUMPDEST SWAP2 POP POP SWAP3 SWAP2 POP POP JUMP JUMPDEST PUSH2 0x41F DUP2 PUSH2 0x53D JUMP JUMPDEST DUP3 MSTORE POP POP JUMP JUMPDEST PUSH1 0x0 PUSH2 0x430 DUP3 PUSH2 0x521 JUMP JUMPDEST PUSH2 0x43A DUP2 DUP6 PUSH2 0x52C JUMP JUMPDEST SWAP4 POP PUSH2 0x44A DUP2 DUP6 PUSH1 0x20 DUP7 ADD PUSH2 0x56F JUMP JUMPDEST PUSH2 0x453 DUP2 PUSH2 0x5A7 JUMP JUMPDEST DUP5 ADD SWAP2 POP POP SWAP3 SWAP2 POP POP JUMP JUMPDEST PUSH1 0x0 PUSH2 0x46B PUSH1 0x9 DUP4 PUSH2 0x52C JUMP JUMPDEST SWAP2 POP PUSH2 0x476 DUP3 PUSH2 0x5B8 JUMP JUMPDEST PUSH1 0x20 DUP3 ADD SWAP1 POP SWAP2 SWAP1 POP JUMP JUMPDEST PUSH1 0x0 PUSH2 0x48E PUSH1 0x7 DUP4 PUSH2 0x52C JUMP JUMPDEST SWAP2 POP PUSH2 0x499 DUP3 PUSH2 0x5E1 JUMP JUMPDEST PUSH1 0x20 DUP3 ADD SWAP1 POP SWAP2 SWAP1 POP JUMP JUMPDEST PUSH1 0x0 PUSH1 0x20 DUP3 ADD SWAP1 POP PUSH2 0x4B9 PUSH1 0x0 DUP4 ADD DUP5 PUSH2 0x416 JUMP JUMPDEST SWAP3 SWAP2 POP POP JUMP JUMPDEST PUSH1 0x0 PUSH1 0x20 DUP3 ADD SWAP1 POP DUP2 DUP2 SUB PUSH1 0x0 DUP4 ADD MSTORE PUSH2 0x4D9 DUP2 DUP5 PUSH2 0x425 JUMP JUMPDEST SWAP1 POP SWAP3 SWAP2 POP POP JUMP JUMPDEST PUSH1 0x0 PUSH1 0x20 DUP3 ADD SWAP1 POP DUP2 DUP2 SUB PUSH1 0x0 DUP4 ADD MSTORE PUSH2 0x4FA DUP2 PUSH2 0x45E JUMP JUMPDEST SWAP1 POP SWAP2 SWAP1 POP JUMP JUMPDEST PUSH1 0x0 PUSH1 0x20 DUP3 ADD SWAP1 POP DUP2 DUP2 SUB PUSH1 0x0 DUP4 ADD MSTORE PUSH2 0x51A DUP2 PUSH2 0x481 JUMP JUMPDEST SWAP1 POP SWAP2 SWAP1 POP JUMP JUMPDEST PUSH1 0x0 DUP2 MLOAD SWAP1 POP SWAP2 SWAP1 POP JUMP JUMPDEST PUSH1 0x0 DUP3 DUP3 MSTORE PUSH1 0x20 DUP3 ADD SWAP1 POP SWAP3 SWAP2 POP POP JUMP JUMPDEST PUSH1 0x0 PUSH2 0x548 DUP3 PUSH2 0x54F JUMP JUMPDEST SWAP1 POP SWAP2 SWAP1 POP JUMP JUMPDEST PUSH1 0x0 PUSH20 0xFFFFFFFFFFFFFFFFFFFFFFFFFFFFFFFFFFFFFFFF DUP3 AND SWAP1 POP SWAP2 SWAP1 POP JUMP JUMPDEST PUSH1 0x0 JUMPDEST DUP4 DUP2 LT ISZERO PUSH2 0x58D JUMPI DUP1 DUP3 ADD MLOAD DUP2 DUP5 ADD MSTORE PUSH1 0x20 DUP2 ADD SWAP1 POP PUSH2 0x572 JUMP JUMPDEST DUP4 DUP2 GT ISZERO PUSH2 0x59C JUMPI PUSH1 0x0 DUP5 DUP5 ADD MSTORE JUMPDEST POP POP POP POP JUMP JUMPDEST PUSH1 0x0 DUP1 REVERT JUMPDEST PUSH1 0x0 PUSH1 0x1F NOT PUSH1 0x1F DUP4 ADD AND SWAP1 POP SWAP2 SWAP1 POP JUMP JUMPDEST PUSH32 0x6E6F74206F776E65720000000000000000000000000000000000000000000000 PUSH1 0x0 DUP3 ADD MSTORE POP JUMP JUMPDEST PUSH32 0x696E76616C696400000000000000000000000000000000000000000000000000 PUSH1 0x0 DUP3 ADD MSTORE POP JUMP JUMPDEST PUSH2 0x613 DUP2 PUSH2 0x53D JUMP JUMPDEST DUP2 EQ PUSH2 0x61E JUMPI PUSH1 0x0 DUP1 REVERT JUMPDEST POP JUMP INVALID LOG2 PUSH5 0x6970667358 0x22 SLT KECCAK256 0xC7 INVALID SHR DUP15 0xCF JUMPI 0xE 0xCA 0x5D 0xD5 0xD3 SWAP4 0xB1 PUSH5 0xA49F7BA3ED PUSH20 0x6C82BA403E3EDBE8F7B700EE64736F6C63430008 SMOD STOP CALLER "
				},
				"gasEstimates": {
					"creation": {
						"codeDepositCost": "324600",
						"executionCost": "24628",
						"totalCost": "349228"
					},
					"external": {
						"anyOneAccess()": "infinite",
						"onlyAccessOwner()": "infinite",
						"owner()": "2533",
						"setOwner(address)": "26905"
					}
				},
				"methodIdentifiers": {
					"anyOneAccess()": "efa11404",
					"onlyAccessOwner()": "53dae509",
					"owner()": "8da5cb5b",
					"setOwner(address)": "13af4035"
				}
			},
			"storageLayout": {
				"storage": [
					{
						"astId": 4,
						"contract": "firstc.sol:ownable",
						"label": "owner",
						"offset": 0,
						"slot": "0",
						"type": "t_address"
					}
				],
				"types": {
					"t_address": {
						"encoding": "inplace",
						"label": "address",
						"numberOfBytes": "20"
					}
				}
			},
			"userdoc": {
				"kind": "user",
				"methods": {},
				"version": 1
			}
		}
	}
}