{
	"firstc.sol": {
		"ownable": {
			"abi": [
				{
					"inputs": [],
					"stateMutability": "nonpayable",
					"type": "constructor"
				},
				{
					"inputs": [],
					"name": "onlyAccessOwner",
					"outputs": [],
					"stateMutability": "nonpayable",
					"type": "function"
				},
				{
					"inputs": [],
					"name": "owner",
					"outputs": [
						{
							"internalType": "address",
							"name": "",
							"type": "address"
						}
					],
					"stateMutability": "view",
					"type": "function"
				},
				{
					"inputs": [
						{
							"internalType": "address",
							"name": "_newOwner",
							"type": "address"
						}
					],
					"name": "setOwner",
					"outputs": [],
					"stateMutability": "nonpayable",
					"type": "function"
				}
			],
			"devdoc": {
				"kind": "dev",
				"methods": {},
				"version": 1
			},
			"evm": {
				"assembly": "    /* \"firstc.sol\":62:417  contract ownable{\r... */\n  mstore(0x40, 0x80)\n    /* \"firstc.sol\":106:145  constructor(){\r... */\n  callvalue\n  dup1\n  iszero\n  tag_1\n  jumpi\n  0x00\n  dup1\n  revert\ntag_1:\n  pop\n    /* \"firstc.sol\":131:141  msg.sender */\n  caller\n    /* \"firstc.sol\":125:130  owner */\n  0x00\n  dup1\n    /* \"firstc.sol\":125:141  owner=msg.sender */\n  0x0100\n  exp\n  dup2\n  sload\n  dup2\n  0xffffffffffffffffffffffffffffffffffffffff\n  mul\n  not\n  and\n  swap1\n  dup4\n  0xffffffffffffffffffffffffffffffffffffffff\n  and\n  mul\n  or\n  swap1\n  sstore\n  pop\n    /* \"firstc.sol\":62:417  contract ownable{\r... */\n  dataSize(sub_0)\n  dup1\n  dataOffset(sub_0)\n  0x00\n  codecopy\n  0x00\n  return\nstop\n\nsub_0: assembly {\n        /* \"firstc.sol\":62:417  contract ownable{\r... */\n      mstore(0x40, 0x80)\n      callvalue\n      dup1\n      iszero\n      tag_1\n      jumpi\n      0x00\n      dup1\n      revert\n    tag_1:\n      pop\n      jumpi(tag_2, lt(calldatasize, 0x04))\n      shr(0xe0, calldataload(0x00))\n      dup1\n      0x13af4035\n      eq\n      tag_3\n      jumpi\n      dup1\n      0x53dae509\n      eq\n      tag_4\n      jumpi\n      dup1\n      0x8da5cb5b\n      eq\n      tag_5\n      jumpi\n    tag_2:\n      0x00\n      dup1\n      revert\n        /* \"firstc.sol\":231:346  function setOwner(address _newOwner) public onlyOwner{\r... */\n    tag_3:\n      tag_6\n      0x04\n      dup1\n      calldatasize\n      sub\n      dup2\n      add\n      swap1\n      tag_7\n      swap2\n      swap1\n      tag_8\n      jump\t// in\n    tag_7:\n      tag_9\n      jump\t// in\n    tag_6:\n      stop\n        /* \"firstc.sol\":349:410  function onlyAccessOwner() public onlyOwner{\r... */\n    tag_4:\n      tag_10\n      tag_11\n      jump\t// in\n    tag_10:\n      stop\n        /* \"firstc.sol\":81:101  address public owner */\n    tag_5:\n      tag_12\n      tag_13\n      jump\t// in\n    tag_12:\n      mload(0x40)\n      tag_14\n      swap2\n      swap1\n      tag_15\n      jump\t// in\n    tag_14:\n      mload(0x40)\n      dup1\n      swap2\n      sub\n      swap1\n      return\n        /* \"firstc.sol\":231:346  function setOwner(address _newOwner) public onlyOwner{\r... */\n    tag_9:\n        /* \"firstc.sol\":197:202  owner */\n      0x00\n      dup1\n      sload\n      swap1\n      0x0100\n      exp\n      swap1\n      div\n      0xffffffffffffffffffffffffffffffffffffffff\n      and\n        /* \"firstc.sol\":183:202  msg.sender == owner */\n      0xffffffffffffffffffffffffffffffffffffffff\n      and\n        /* \"firstc.sol\":183:193  msg.sender */\n      caller\n        /* \"firstc.sol\":183:202  msg.sender == owner */\n      0xffffffffffffffffffffffffffffffffffffffff\n      and\n      eq\n        /* \"firstc.sol\":175:215  require(msg.sender == owner,\"not owner\") */\n      tag_17\n      jumpi\n      mload(0x40)\n      0x08c379a000000000000000000000000000000000000000000000000000000000\n      dup2\n      mstore\n      0x04\n      add\n      tag_18\n      swap1\n      tag_19\n      jump\t// in\n    tag_18:\n      mload(0x40)\n      dup1\n      swap2\n      sub\n      swap1\n      revert\n    tag_17:\n        /* \"firstc.sol\":321:322  0 */\n      0x00\n        /* \"firstc.sol\":300:323  _newOwner != address(0) */\n      0xffffffffffffffffffffffffffffffffffffffff\n      and\n        /* \"firstc.sol\":300:309  _newOwner */\n      dup2\n        /* \"firstc.sol\":300:323  _newOwner != address(0) */\n      0xffffffffffffffffffffffffffffffffffffffff\n      and\n      eq\n      iszero\n        /* \"firstc.sol\":292:334  require(_newOwner != address(0),\"invalid\") */\n      tag_21\n      jumpi\n      mload(0x40)\n      0x08c379a000000000000000000000000000000000000000000000000000000000\n      dup2\n      mstore\n      0x04\n      add\n      tag_22\n      swap1\n      tag_23\n      jump\t// in\n    tag_22:\n      mload(0x40)\n      dup1\n      swap2\n      sub\n      swap1\n      revert\n    tag_21:\n        /* \"firstc.sol\":231:346  function setOwner(address _newOwner) public onlyOwner{\r... */\n      pop\n      jump\t// out\n        /* \"firstc.sol\":349:410  function onlyAccessOwner() public onlyOwner{\r... */\n    tag_11:\n        /* \"firstc.sol\":197:202  owner */\n      0x00\n      dup1\n      sload\n      swap1\n      0x0100\n      exp\n      swap1\n      div\n      0xffffffffffffffffffffffffffffffffffffffff\n      and\n        /* \"firstc.sol\":183:202  msg.sender == owner */\n      0xffffffffffffffffffffffffffffffffffffffff\n      and\n        /* \"firstc.sol\":183:193  msg.sender */\n      caller\n        /* \"firstc.sol\":183:202  msg.sender == owner */\n      0xffffffffffffffffffffffffffffffffffffffff\n      and\n      eq\n        /* \"firstc.sol\":175:215  require(msg.sender == owner,\"not owner\") */\n      tag_25\n      jumpi\n      mload(0x40)\n      0x08c379a000000000000000000000000000000000000000000000000000000000\n      dup2\n      mstore\n      0x04\n      add\n      tag_26\n      swap1\n      tag_19\n      jump\t// in\n    tag_26:\n      mload(0x40)\n      dup1\n      swap2\n      sub\n      swap1\n      revert\n    tag_25:\n        /* \"firstc.sol\":349:410  function onlyAccessOwner() public onlyOwner{\r... */\n      jump\t// out\n        /* \"firstc.sol\":81:101  address public owner */\n    tag_13:\n      0x00\n      dup1\n      sload\n      swap1\n      0x0100\n      exp\n      swap1\n      div\n      0xffffffffffffffffffffffffffffffffffffffff\n      and\n      dup2\n      jump\t// out\n        /* \"#utility.yul\":7:146   */\n    tag_29:\n        /* \"#utility.yul\":53:58   */\n      0x00\n        /* \"#utility.yul\":91:97   */\n      dup2\n        /* \"#utility.yul\":78:98   */\n      calldataload\n        /* \"#utility.yul\":69:98   */\n      swap1\n      pop\n        /* \"#utility.yul\":107:140   */\n      tag_31\n        /* \"#utility.yul\":134:139   */\n      dup2\n        /* \"#utility.yul\":107:140   */\n      tag_32\n      jump\t// in\n    tag_31:\n        /* \"#utility.yul\":7:146   */\n      swap3\n      swap2\n      pop\n      pop\n      jump\t// out\n        /* \"#utility.yul\":152:481   */\n    tag_8:\n        /* \"#utility.yul\":211:217   */\n      0x00\n        /* \"#utility.yul\":260:262   */\n      0x20\n        /* \"#utility.yul\":248:257   */\n      dup3\n        /* \"#utility.yul\":239:246   */\n      dup5\n        /* \"#utility.yul\":235:258   */\n      sub\n        /* \"#utility.yul\":231:263   */\n      slt\n        /* \"#utility.yul\":228:347   */\n      iszero\n      tag_34\n      jumpi\n        /* \"#utility.yul\":266:345   */\n      tag_35\n      tag_36\n      jump\t// in\n    tag_35:\n        /* \"#utility.yul\":228:347   */\n    tag_34:\n        /* \"#utility.yul\":386:387   */\n      0x00\n        /* \"#utility.yul\":411:464   */\n      tag_37\n        /* \"#utility.yul\":456:463   */\n      dup5\n        /* \"#utility.yul\":447:453   */\n      dup3\n        /* \"#utility.yul\":436:445   */\n      dup6\n        /* \"#utility.yul\":432:454   */\n      add\n        /* \"#utility.yul\":411:464   */\n      tag_29\n      jump\t// in\n    tag_37:\n        /* \"#utility.yul\":401:464   */\n      swap2\n      pop\n        /* \"#utility.yul\":357:474   */\n      pop\n        /* \"#utility.yul\":152:481   */\n      swap3\n      swap2\n      pop\n      pop\n      jump\t// out\n        /* \"#utility.yul\":487:605   */\n    tag_38:\n        /* \"#utility.yul\":574:598   */\n      tag_40\n        /* \"#utility.yul\":592:597   */\n      dup2\n        /* \"#utility.yul\":574:598   */\n      tag_41\n      jump\t// in\n    tag_40:\n        /* \"#utility.yul\":569:572   */\n      dup3\n        /* \"#utility.yul\":562:599   */\n      mstore\n        /* \"#utility.yul\":487:605   */\n      pop\n      pop\n      jump\t// out\n        /* \"#utility.yul\":611:976   */\n    tag_42:\n        /* \"#utility.yul\":753:756   */\n      0x00\n        /* \"#utility.yul\":774:840   */\n      tag_44\n        /* \"#utility.yul\":838:839   */\n      0x09\n        /* \"#utility.yul\":833:836   */\n      dup4\n        /* \"#utility.yul\":774:840   */\n      tag_45\n      jump\t// in\n    tag_44:\n        /* \"#utility.yul\":767:840   */\n      swap2\n      pop\n        /* \"#utility.yul\":849:942   */\n      tag_46\n        /* \"#utility.yul\":938:941   */\n      dup3\n        /* \"#utility.yul\":849:942   */\n      tag_47\n      jump\t// in\n    tag_46:\n        /* \"#utility.yul\":967:969   */\n      0x20\n        /* \"#utility.yul\":962:965   */\n      dup3\n        /* \"#utility.yul\":958:970   */\n      add\n        /* \"#utility.yul\":951:970   */\n      swap1\n      pop\n        /* \"#utility.yul\":611:976   */\n      swap2\n      swap1\n      pop\n      jump\t// out\n        /* \"#utility.yul\":982:1347   */\n    tag_48:\n        /* \"#utility.yul\":1124:1127   */\n      0x00\n        /* \"#utility.yul\":1145:1211   */\n      tag_50\n        /* \"#utility.yul\":1209:1210   */\n      0x07\n        /* \"#utility.yul\":1204:1207   */\n      dup4\n        /* \"#utility.yul\":1145:1211   */\n      tag_45\n      jump\t// in\n    tag_50:\n        /* \"#utility.yul\":1138:1211   */\n      swap2\n      pop\n        /* \"#utility.yul\":1220:1313   */\n      tag_51\n        /* \"#utility.yul\":1309:1312   */\n      dup3\n        /* \"#utility.yul\":1220:1313   */\n      tag_52\n      jump\t// in\n    tag_51:\n        /* \"#utility.yul\":1338:1340   */\n      0x20\n        /* \"#utility.yul\":1333:1336   */\n      dup3\n        /* \"#utility.yul\":1329:1341   */\n      add\n        /* \"#utility.yul\":1322:1341   */\n      swap1\n      pop\n        /* \"#utility.yul\":982:1347   */\n      swap2\n      swap1\n      pop\n      jump\t// out\n        /* \"#utility.yul\":1353:1575   */\n    tag_15:\n        /* \"#utility.yul\":1446:1450   */\n      0x00\n        /* \"#utility.yul\":1484:1486   */\n      0x20\n        /* \"#utility.yul\":1473:1482   */\n      dup3\n        /* \"#utility.yul\":1469:1487   */\n      add\n        /* \"#utility.yul\":1461:1487   */\n      swap1\n      pop\n        /* \"#utility.yul\":1497:1568   */\n      tag_54\n        /* \"#utility.yul\":1565:1566   */\n      0x00\n        /* \"#utility.yul\":1554:1563   */\n      dup4\n        /* \"#utility.yul\":1550:1567   */\n      add\n        /* \"#utility.yul\":1541:1547   */\n      dup5\n        /* \"#utility.yul\":1497:1568   */\n      tag_38\n      jump\t// in\n    tag_54:\n        /* \"#utility.yul\":1353:1575   */\n      swap3\n      swap2\n      pop\n      pop\n      jump\t// out\n        /* \"#utility.yul\":1581:2000   */\n    tag_19:\n        /* \"#utility.yul\":1747:1751   */\n      0x00\n        /* \"#utility.yul\":1785:1787   */\n      0x20\n        /* \"#utility.yul\":1774:1783   */\n      dup3\n        /* \"#utility.yul\":1770:1788   */\n      add\n        /* \"#utility.yul\":1762:1788   */\n      swap1\n      pop\n        /* \"#utility.yul\":1834:1843   */\n      dup2\n        /* \"#utility.yul\":1828:1832   */\n      dup2\n        /* \"#utility.yul\":1824:1844   */\n      sub\n        /* \"#utility.yul\":1820:1821   */\n      0x00\n        /* \"#utility.yul\":1809:1818   */\n      dup4\n        /* \"#utility.yul\":1805:1822   */\n      add\n        /* \"#utility.yul\":1798:1845   */\n      mstore\n        /* \"#utility.yul\":1862:1993   */\n      tag_56\n        /* \"#utility.yul\":1988:1992   */\n      dup2\n        /* \"#utility.yul\":1862:1993   */\n      tag_42\n      jump\t// in\n    tag_56:\n        /* \"#utility.yul\":1854:1993   */\n      swap1\n      pop\n        /* \"#utility.yul\":1581:2000   */\n      swap2\n      swap1\n      pop\n      jump\t// out\n        /* \"#utility.yul\":2006:2425   */\n    tag_23:\n        /* \"#utility.yul\":2172:2176   */\n      0x00\n        /* \"#utility.yul\":2210:2212   */\n      0x20\n        /* \"#utility.yul\":2199:2208   */\n      dup3\n        /* \"#utility.yul\":2195:2213   */\n      add\n        /* \"#utility.yul\":2187:2213   */\n      swap1\n      pop\n        /* \"#utility.yul\":2259:2268   */\n      dup2\n        /* \"#utility.yul\":2253:2257   */\n      dup2\n        /* \"#utility.yul\":2249:2269   */\n      sub\n        /* \"#utility.yul\":2245:2246   */\n      0x00\n        /* \"#utility.yul\":2234:2243   */\n      dup4\n        /* \"#utility.yul\":2230:2247   */\n      add\n        /* \"#utility.yul\":2223:2270   */\n      mstore\n        /* \"#utility.yul\":2287:2418   */\n      tag_58\n        /* \"#utility.yul\":2413:2417   */\n      dup2\n        /* \"#utility.yul\":2287:2418   */\n      tag_48\n      jump\t// in\n    tag_58:\n        /* \"#utility.yul\":2279:2418   */\n      swap1\n      pop\n        /* \"#utility.yul\":2006:2425   */\n      swap2\n      swap1\n      pop\n      jump\t// out\n        /* \"#utility.yul\":2512:2681   */\n    tag_45:\n        /* \"#utility.yul\":2596:2607   */\n      0x00\n        /* \"#utility.yul\":2630:2636   */\n      dup3\n        /* \"#utility.yul\":2625:2628   */\n      dup3\n        /* \"#utility.yul\":2618:2637   */\n      mstore\n        /* \"#utility.yul\":2670:2674   */\n      0x20\n        /* \"#utility.yul\":2665:2668   */\n      dup3\n        /* \"#utility.yul\":2661:2675   */\n      add\n        /* \"#utility.yul\":2646:2675   */\n      swap1\n      pop\n        /* \"#utility.yul\":2512:2681   */\n      swap3\n      swap2\n      pop\n      pop\n      jump\t// out\n        /* \"#utility.yul\":2687:2783   */\n    tag_41:\n        /* \"#utility.yul\":2724:2731   */\n      0x00\n        /* \"#utility.yul\":2753:2777   */\n      tag_63\n        /* \"#utility.yul\":2771:2776   */\n      dup3\n        /* \"#utility.yul\":2753:2777   */\n      tag_64\n      jump\t// in\n    tag_63:\n        /* \"#utility.yul\":2742:2777   */\n      swap1\n      pop\n        /* \"#utility.yul\":2687:2783   */\n      swap2\n      swap1\n      pop\n      jump\t// out\n        /* \"#utility.yul\":2789:2915   */\n    tag_64:\n        /* \"#utility.yul\":2826:2833   */\n      0x00\n        /* \"#utility.yul\":2866:2908   */\n      0xffffffffffffffffffffffffffffffffffffffff\n        /* \"#utility.yul\":2859:2864   */\n      dup3\n        /* \"#utility.yul\":2855:2909   */\n      and\n        /* \"#utility.yul\":2844:2909   */\n      swap1\n      pop\n        /* \"#utility.yul\":2789:2915   */\n      swap2\n      swap1\n      pop\n      jump\t// out\n        /* \"#utility.yul\":3044:3161   */\n    tag_36:\n        /* \"#utility.yul\":3153:3154   */\n      0x00\n        /* \"#utility.yul\":3150:3151   */\n      dup1\n        /* \"#utility.yul\":3143:3155   */\n      revert\n        /* \"#utility.yul\":3167:3326   */\n    tag_47:\n        /* \"#utility.yul\":3307:3318   */\n      0x6e6f74206f776e65720000000000000000000000000000000000000000000000\n        /* \"#utility.yul\":3303:3304   */\n      0x00\n        /* \"#utility.yul\":3295:3301   */\n      dup3\n        /* \"#utility.yul\":3291:3305   */\n      add\n        /* \"#utility.yul\":3284:3319   */\n      mstore\n        /* \"#utility.yul\":3167:3326   */\n      pop\n      jump\t// out\n        /* \"#utility.yul\":3332:3489   */\n    tag_52:\n        /* \"#utility.yul\":3472:3481   */\n      0x696e76616c696400000000000000000000000000000000000000000000000000\n        /* \"#utility.yul\":3468:3469   */\n      0x00\n        /* \"#utility.yul\":3460:3466   */\n      dup3\n        /* \"#utility.yul\":3456:3470   */\n      add\n        /* \"#utility.yul\":3449:3482   */\n      mstore\n        /* \"#utility.yul\":3332:3489   */\n      pop\n      jump\t// out\n        /* \"#utility.yul\":3495:3617   */\n    tag_32:\n        /* \"#utility.yul\":3568:3592   */\n      tag_72\n        /* \"#utility.yul\":3586:3591   */\n      dup2\n        /* \"#utility.yul\":3568:3592   */\n      tag_41\n      jump\t// in\n    tag_72:\n        /* \"#utility.yul\":3561:3566   */\n      dup2\n        /* \"#utility.yul\":3558:3593   */\n      eq\n        /* \"#utility.yul\":3548:3611   */\n      tag_73\n      jumpi\n        /* \"#utility.yul\":3607:3608   */\n      0x00\n        /* \"#utility.yul\":3604:3605   */\n      dup1\n        /* \"#utility.yul\":3597:3609   */\n      revert\n        /* \"#utility.yul\":3548:3611   */\n    tag_73:\n        /* \"#utility.yul\":3495:3617   */\n      pop\n      jump\t// out\n\n    auxdata: 0xa264697066735822122089cd7a0f656bcd910c22c78065d39f8d06411e3f17e2ecf6cfd252c581e42b9464736f6c63430008070033\n}\n",
				"bytecode": {
					"linkReferences": {},
					"object": "608060405234801561001057600080fd5b50336000806101000a81548173ffffffffffffffffffffffffffffffffffffffff021916908373ffffffffffffffffffffffffffffffffffffffff160217905550610418806100606000396000f3fe608060405234801561001057600080fd5b50600436106100415760003560e01c806313af40351461004657806353dae509146100625780638da5cb5b1461006c575b600080fd5b610060600480360381019061005b9190610254565b61008a565b005b61006a61018b565b005b61007461021b565b60405161008191906102d6565b60405180910390f35b60008054906101000a900473ffffffffffffffffffffffffffffffffffffffff1673ffffffffffffffffffffffffffffffffffffffff163373ffffffffffffffffffffffffffffffffffffffff1614610118576040517f08c379a000000000000000000000000000000000000000000000000000000000815260040161010f906102f1565b60405180910390fd5b600073ffffffffffffffffffffffffffffffffffffffff168173ffffffffffffffffffffffffffffffffffffffff161415610188576040517f08c379a000000000000000000000000000000000000000000000000000000000815260040161017f90610311565b60405180910390fd5b50565b60008054906101000a900473ffffffffffffffffffffffffffffffffffffffff1673ffffffffffffffffffffffffffffffffffffffff163373ffffffffffffffffffffffffffffffffffffffff1614610219576040517f08c379a0000000000000000000000000000000000000000000000000000000008152600401610210906102f1565b60405180910390fd5b565b60008054906101000a900473ffffffffffffffffffffffffffffffffffffffff1681565b60008135905061024e816103cb565b92915050565b60006020828403121561026a57610269610374565b5b60006102788482850161023f565b91505092915050565b61028a81610342565b82525050565b600061029d600983610331565b91506102a882610379565b602082019050919050565b60006102c0600783610331565b91506102cb826103a2565b602082019050919050565b60006020820190506102eb6000830184610281565b92915050565b6000602082019050818103600083015261030a81610290565b9050919050565b6000602082019050818103600083015261032a816102b3565b9050919050565b600082825260208201905092915050565b600061034d82610354565b9050919050565b600073ffffffffffffffffffffffffffffffffffffffff82169050919050565b600080fd5b7f6e6f74206f776e65720000000000000000000000000000000000000000000000600082015250565b7f696e76616c696400000000000000000000000000000000000000000000000000600082015250565b6103d481610342565b81146103df57600080fd5b5056fea264697066735822122089cd7a0f656bcd910c22c78065d39f8d06411e3f17e2ecf6cfd252c581e42b9464736f6c63430008070033",
					"opcodes": "PUSH1 0x80 PUSH1 0x40 MSTORE CALLVALUE DUP1 ISZERO PUSH2 0x10 JUMPI PUSH1 0x0 DUP1 REVERT JUMPDEST POP CALLER PUSH1 0x0 DUP1 PUSH2 0x100 EXP DUP2 SLOAD DUP2 PUSH20 0xFFFFFFFFFFFFFFFFFFFFFFFFFFFFFFFFFFFFFFFF MUL NOT AND SWAP1 DUP4 PUSH20 0xFFFFFFFFFFFFFFFFFFFFFFFFFFFFFFFFFFFFFFFF AND MUL OR SWAP1 SSTORE POP PUSH2 0x418 DUP1 PUSH2 0x60 PUSH1 0x0 CODECOPY PUSH1 0x0 RETURN INVALID PUSH1 0x80 PUSH1 0x40 MSTORE CALLVALUE DUP1 ISZERO PUSH2 0x10 JUMPI PUSH1 0x0 DUP1 REVERT JUMPDEST POP PUSH1 0x4 CALLDATASIZE LT PUSH2 0x41 JUMPI PUSH1 0x0 CALLDATALOAD PUSH1 0xE0 SHR DUP1 PUSH4 0x13AF4035 EQ PUSH2 0x46 JUMPI DUP1 PUSH4 0x53DAE509 EQ PUSH2 0x62 JUMPI DUP1 PUSH4 0x8DA5CB5B EQ PUSH2 0x6C JUMPI JUMPDEST PUSH1 0x0 DUP1 REVERT JUMPDEST PUSH2 0x60 PUSH1 0x4 DUP1 CALLDATASIZE SUB DUP2 ADD SWAP1 PUSH2 0x5B SWAP2 SWAP1 PUSH2 0x254 JUMP JUMPDEST PUSH2 0x8A JUMP JUMPDEST STOP JUMPDEST PUSH2 0x6A PUSH2 0x18B JUMP JUMPDEST STOP JUMPDEST PUSH2 0x74 PUSH2 0x21B JUMP JUMPDEST PUSH1 0x40 MLOAD PUSH2 0x81 SWAP2 SWAP1 PUSH2 0x2D6 JUMP JUMPDEST PUSH1 0x40 MLOAD DUP1 SWAP2 SUB SWAP1 RETURN JUMPDEST PUSH1 0x0 DUP1 SLOAD SWAP1 PUSH2 0x100 EXP SWAP1 DIV PUSH20 0xFFFFFFFFFFFFFFFFFFFFFFFFFFFFFFFFFFFFFFFF AND PUSH20 0xFFFFFFFFFFFFFFFFFFFFFFFFFFFFFFFFFFFFFFFF AND CALLER PUSH20 0xFFFFFFFFFFFFFFFFFFFFFFFFFFFFFFFFFFFFFFFF AND EQ PUSH2 0x118 JUMPI PUSH1 0x40 MLOAD PUSH32 0x8C379A000000000000000000000000000000000000000000000000000000000 DUP2 MSTORE PUSH1 0x4 ADD PUSH2 0x10F SWAP1 PUSH2 0x2F1 JUMP JUMPDEST PUSH1 0x40 MLOAD DUP1 SWAP2 SUB SWAP1 REVERT JUMPDEST PUSH1 0x0 PUSH20 0xFFFFFFFFFFFFFFFFFFFFFFFFFFFFFFFFFFFFFFFF AND DUP2 PUSH20 0xFFFFFFFFFFFFFFFFFFFFFFFFFFFFFFFFFFFFFFFF AND EQ ISZERO PUSH2 0x188 JUMPI PUSH1 0x40 MLOAD PUSH32 0x8C379A000000000000000000000000000000000000000000000000000000000 DUP2 MSTORE PUSH1 0x4 ADD PUSH2 0x17F SWAP1 PUSH2 0x311 JUMP JUMPDEST PUSH1 0x40 MLOAD DUP1 SWAP2 SUB SWAP1 REVERT JUMPDEST POP JUMP JUMPDEST PUSH1 0x0 DUP1 SLOAD SWAP1 PUSH2 0x100 EXP SWAP1 DIV PUSH20 0xFFFFFFFFFFFFFFFFFFFFFFFFFFFFFFFFFFFFFFFF AND PUSH20 0xFFFFFFFFFFFFFFFFFFFFFFFFFFFFFFFFFFFFFFFF AND CALLER PUSH20 0xFFFFFFFFFFFFFFFFFFFFFFFFFFFFFFFFFFFFFFFF AND EQ PUSH2 0x219 JUMPI PUSH1 0x40 MLOAD PUSH32 0x8C379A000000000000000000000000000000000000000000000000000000000 DUP2 MSTORE PUSH1 0x4 ADD PUSH2 0x210 SWAP1 PUSH2 0x2F1 JUMP JUMPDEST PUSH1 0x40 MLOAD DUP1 SWAP2 SUB SWAP1 REVERT JUMPDEST JUMP JUMPDEST PUSH1 0x0 DUP1 SLOAD SWAP1 PUSH2 0x100 EXP SWAP1 DIV PUSH20 0xFFFFFFFFFFFFFFFFFFFFFFFFFFFFFFFFFFFFFFFF AND DUP2 JUMP JUMPDEST PUSH1 0x0 DUP2 CALLDATALOAD SWAP1 POP PUSH2 0x24E DUP2 PUSH2 0x3CB JUMP JUMPDEST SWAP3 SWAP2 POP POP JUMP JUMPDEST PUSH1 0x0 PUSH1 0x20 DUP3 DUP5 SUB SLT ISZERO PUSH2 0x26A JUMPI PUSH2 0x269 PUSH2 0x374 JUMP JUMPDEST JUMPDEST PUSH1 0x0 PUSH2 0x278 DUP5 DUP3 DUP6 ADD PUSH2 0x23F JUMP JUMPDEST SWAP2 POP POP SWAP3 SWAP2 POP POP JUMP JUMPDEST PUSH2 0x28A DUP2 PUSH2 0x342 JUMP JUMPDEST DUP3 MSTORE POP POP JUMP JUMPDEST PUSH1 0x0 PUSH2 0x29D PUSH1 0x9 DUP4 PUSH2 0x331 JUMP JUMPDEST SWAP2 POP PUSH2 0x2A8 DUP3 PUSH2 0x379 JUMP JUMPDEST PUSH1 0x20 DUP3 ADD SWAP1 POP SWAP2 SWAP1 POP JUMP JUMPDEST PUSH1 0x0 PUSH2 0x2C0 PUSH1 0x7 DUP4 PUSH2 0x331 JUMP JUMPDEST SWAP2 POP PUSH2 0x2CB DUP3 PUSH2 0x3A2 JUMP JUMPDEST PUSH1 0x20 DUP3 ADD SWAP1 POP SWAP2 SWAP1 POP JUMP JUMPDEST PUSH1 0x0 PUSH1 0x20 DUP3 ADD SWAP1 POP PUSH2 0x2EB PUSH1 0x0 DUP4 ADD DUP5 PUSH2 0x281 JUMP JUMPDEST SWAP3 SWAP2 POP POP JUMP JUMPDEST PUSH1 0x0 PUSH1 0x20 DUP3 ADD SWAP1 POP DUP2 DUP2 SUB PUSH1 0x0 DUP4 ADD MSTORE PUSH2 0x30A DUP2 PUSH2 0x290 JUMP JUMPDEST SWAP1 POP SWAP2 SWAP1 POP JUMP JUMPDEST PUSH1 0x0 PUSH1 0x20 DUP3 ADD SWAP1 POP DUP2 DUP2 SUB PUSH1 0x0 DUP4 ADD MSTORE PUSH2 0x32A DUP2 PUSH2 0x2B3 JUMP JUMPDEST SWAP1 POP SWAP2 SWAP1 POP JUMP JUMPDEST PUSH1 0x0 DUP3 DUP3 MSTORE PUSH1 0x20 DUP3 ADD SWAP1 POP SWAP3 SWAP2 POP POP JUMP JUMPDEST PUSH1 0x0 PUSH2 0x34D DUP3 PUSH2 0x354 JUMP JUMPDEST SWAP1 POP SWAP2 SWAP1 POP JUMP JUMPDEST PUSH1 0x0 PUSH20 0xFFFFFFFFFFFFFFFFFFFFFFFFFFFFFFFFFFFFFFFF DUP3 AND SWAP1 POP SWAP2 SWAP1 POP JUMP JUMPDEST PUSH1 0x0 DUP1 REVERT JUMPDEST PUSH32 0x6E6F74206F776E65720000000000000000000000000000000000000000000000 PUSH1 0x0 DUP3 ADD MSTORE POP JUMP JUMPDEST PUSH32 0x696E76616C696400000000000000000000000000000000000000000000000000 PUSH1 0x0 DUP3 ADD MSTORE POP JUMP JUMPDEST PUSH2 0x3D4 DUP2 PUSH2 0x342 JUMP JUMPDEST DUP2 EQ PUSH2 0x3DF JUMPI PUSH1 0x0 DUP1 REVERT JUMPDEST POP JUMP INVALID LOG2 PUSH5 0x6970667358 0x22 SLT KECCAK256 DUP10 0xCD PUSH27 0xF656BCD910C22C78065D39F8D06411E3F17E2ECF6CFD252C581E4 0x2B SWAP5 PUSH5 0x736F6C6343 STOP ADDMOD SMOD STOP CALLER "
				},
				"gasEstimates": {
					"creation": {
						"codeDepositCost": "209600",
						"executionCost": "24517",
						"totalCost": "234117"
					},
					"external": {
						"onlyAccessOwner()": "2600",
						"owner()": "2533",
						"setOwner(address)": "2925"
					}
				},
				"methodIdentifiers": {
					"onlyAccessOwner()": "53dae509",
					"owner()": "8da5cb5b",
					"setOwner(address)": "13af4035"
				}
			},
			"storageLayout": {
				"storage": [
					{
						"astId": 3,
						"contract": "firstc.sol:ownable",
						"label": "owner",
						"offset": 0,
						"slot": "0",
						"type": "t_address"
					}
				],
				"types": {
					"t_address": {
						"encoding": "inplace",
						"label": "address",
						"numberOfBytes": "20"
					}
				}
			},
			"userdoc": {
				"kind": "user",
				"methods": {},
				"version": 1
			}
		}
	}
}