{
	"firstc.sol": {
		"ownable": {
			"abi": [
				{
					"inputs": [],
					"stateMutability": "nonpayable",
					"type": "constructor"
				},
				{
					"inputs": [],
					"name": "anyOneAccess",
					"outputs": [],
					"stateMutability": "nonpayable",
					"type": "function"
				},
				{
					"inputs": [],
					"name": "onlyAccessOwner",
					"outputs": [],
					"stateMutability": "nonpayable",
					"type": "function"
				},
				{
					"inputs": [],
					"name": "owner",
					"outputs": [
						{
							"internalType": "address",
							"name": "",
							"type": "address"
						}
					],
					"stateMutability": "view",
					"type": "function"
				},
				{
					"inputs": [
						{
							"internalType": "address",
							"name": "_newOwner",
							"type": "address"
						}
					],
					"name": "setOwner",
					"outputs": [],
					"stateMutability": "nonpayable",
					"type": "function"
				}
			],
			"devdoc": {
				"kind": "dev",
				"methods": {},
				"version": 1
			},
			"evm": {
				"assembly": "    /* \"firstc.sol\":93:580  contract ownable{\r... */\n  mstore(0x40, 0x80)\n    /* \"firstc.sol\":137:176  constructor(){\r... */\n  callvalue\n  dup1\n  iszero\n  tag_1\n  jumpi\n  0x00\n  dup1\n  revert\ntag_1:\n  pop\n    /* \"firstc.sol\":162:172  msg.sender */\n  caller\n    /* \"firstc.sol\":156:161  owner */\n  0x00\n  dup1\n    /* \"firstc.sol\":156:172  owner=msg.sender */\n  0x0100\n  exp\n  dup2\n  sload\n  dup2\n  0xffffffffffffffffffffffffffffffffffffffff\n  mul\n  not\n  and\n  swap1\n  dup4\n  0xffffffffffffffffffffffffffffffffffffffff\n  and\n  mul\n  or\n  swap1\n  sstore\n  pop\n    /* \"firstc.sol\":93:580  contract ownable{\r... */\n  dataSize(sub_0)\n  dup1\n  dataOffset(sub_0)\n  0x00\n  codecopy\n  0x00\n  return\nstop\n\nsub_0: assembly {\n        /* \"firstc.sol\":93:580  contract ownable{\r... */\n      mstore(0x40, 0x80)\n      callvalue\n      dup1\n      iszero\n      tag_1\n      jumpi\n      0x00\n      dup1\n      revert\n    tag_1:\n      pop\n      jumpi(tag_2, lt(calldatasize, 0x04))\n      shr(0xe0, calldataload(0x00))\n      dup1\n      0x13af4035\n      eq\n      tag_3\n      jumpi\n      dup1\n      0x53dae509\n      eq\n      tag_4\n      jumpi\n      dup1\n      0x8da5cb5b\n      eq\n      tag_5\n      jumpi\n      dup1\n      0xefa11404\n      eq\n      tag_6\n      jumpi\n    tag_2:\n      0x00\n      dup1\n      revert\n        /* \"firstc.sol\":262:397  function setOwner(address _newOwner) public onlyOwner{\r... */\n    tag_3:\n      tag_7\n      0x04\n      dup1\n      calldatasize\n      sub\n      dup2\n      add\n      swap1\n      tag_8\n      swap2\n      swap1\n      tag_9\n      jump\t// in\n    tag_8:\n      tag_10\n      jump\t// in\n    tag_7:\n      stop\n        /* \"firstc.sol\":400:489  function onlyAccessOwner() public onlyOwner{\r... */\n    tag_4:\n      tag_11\n      tag_12\n      jump\t// in\n    tag_11:\n      stop\n        /* \"firstc.sol\":112:132  address public owner */\n    tag_5:\n      tag_13\n      tag_14\n      jump\t// in\n    tag_13:\n      mload(0x40)\n      tag_15\n      swap2\n      swap1\n      tag_16\n      jump\t// in\n    tag_15:\n      mload(0x40)\n      dup1\n      swap2\n      sub\n      swap1\n      return\n        /* \"firstc.sol\":493:573  function anyOneAccess() public{\r... */\n    tag_6:\n      tag_17\n      tag_18\n      jump\t// in\n    tag_17:\n      stop\n        /* \"firstc.sol\":262:397  function setOwner(address _newOwner) public onlyOwner{\r... */\n    tag_10:\n        /* \"firstc.sol\":228:233  owner */\n      0x00\n      dup1\n      sload\n      swap1\n      0x0100\n      exp\n      swap1\n      div\n      0xffffffffffffffffffffffffffffffffffffffff\n      and\n        /* \"firstc.sol\":214:233  msg.sender == owner */\n      0xffffffffffffffffffffffffffffffffffffffff\n      and\n        /* \"firstc.sol\":214:224  msg.sender */\n      caller\n        /* \"firstc.sol\":214:233  msg.sender == owner */\n      0xffffffffffffffffffffffffffffffffffffffff\n      and\n      eq\n        /* \"firstc.sol\":206:246  require(msg.sender == owner,\"not owner\") */\n      tag_20\n      jumpi\n      mload(0x40)\n      0x08c379a000000000000000000000000000000000000000000000000000000000\n      dup2\n      mstore\n      0x04\n      add\n      tag_21\n      swap1\n      tag_22\n      jump\t// in\n    tag_21:\n      mload(0x40)\n      dup1\n      swap2\n      sub\n      swap1\n      revert\n    tag_20:\n        /* \"firstc.sol\":352:353  0 */\n      0x00\n        /* \"firstc.sol\":331:354  _newOwner != address(0) */\n      0xffffffffffffffffffffffffffffffffffffffff\n      and\n        /* \"firstc.sol\":331:340  _newOwner */\n      dup2\n        /* \"firstc.sol\":331:354  _newOwner != address(0) */\n      0xffffffffffffffffffffffffffffffffffffffff\n      and\n      eq\n      iszero\n        /* \"firstc.sol\":323:365  require(_newOwner != address(0),\"invalid\") */\n      tag_24\n      jumpi\n      mload(0x40)\n      0x08c379a000000000000000000000000000000000000000000000000000000000\n      dup2\n      mstore\n      0x04\n      add\n      tag_25\n      swap1\n      tag_26\n      jump\t// in\n    tag_25:\n      mload(0x40)\n      dup1\n      swap2\n      sub\n      swap1\n      revert\n    tag_24:\n        /* \"firstc.sol\":381:390  _newOwner */\n      dup1\n        /* \"firstc.sol\":373:378  owner */\n      0x00\n      dup1\n        /* \"firstc.sol\":373:390  owner = _newOwner */\n      0x0100\n      exp\n      dup2\n      sload\n      dup2\n      0xffffffffffffffffffffffffffffffffffffffff\n      mul\n      not\n      and\n      swap1\n      dup4\n      0xffffffffffffffffffffffffffffffffffffffff\n      and\n      mul\n      or\n      swap1\n      sstore\n      pop\n        /* \"firstc.sol\":262:397  function setOwner(address _newOwner) public onlyOwner{\r... */\n      pop\n      jump\t// out\n        /* \"firstc.sol\":400:489  function onlyAccessOwner() public onlyOwner{\r... */\n    tag_12:\n        /* \"firstc.sol\":228:233  owner */\n      0x00\n      dup1\n      sload\n      swap1\n      0x0100\n      exp\n      swap1\n      div\n      0xffffffffffffffffffffffffffffffffffffffff\n      and\n        /* \"firstc.sol\":214:233  msg.sender == owner */\n      0xffffffffffffffffffffffffffffffffffffffff\n      and\n        /* \"firstc.sol\":214:224  msg.sender */\n      caller\n        /* \"firstc.sol\":214:233  msg.sender == owner */\n      0xffffffffffffffffffffffffffffffffffffffff\n      and\n      eq\n        /* \"firstc.sol\":206:246  require(msg.sender == owner,\"not owner\") */\n      tag_28\n      jumpi\n      mload(0x40)\n      0x08c379a000000000000000000000000000000000000000000000000000000000\n      dup2\n      mstore\n      0x04\n      add\n      tag_29\n      swap1\n      tag_22\n      jump\t// in\n    tag_29:\n      mload(0x40)\n      dup1\n      swap2\n      sub\n      swap1\n      revert\n    tag_28:\n        /* \"firstc.sol\":400:489  function onlyAccessOwner() public onlyOwner{\r... */\n      jump\t// out\n        /* \"firstc.sol\":112:132  address public owner */\n    tag_14:\n      0x00\n      dup1\n      sload\n      swap1\n      0x0100\n      exp\n      swap1\n      div\n      0xffffffffffffffffffffffffffffffffffffffff\n      and\n      dup2\n      jump\t// out\n        /* \"firstc.sol\":493:573  function anyOneAccess() public{\r... */\n    tag_18:\n      jump\t// out\n        /* \"#utility.yul\":7:146   */\n    tag_33:\n        /* \"#utility.yul\":53:58   */\n      0x00\n        /* \"#utility.yul\":91:97   */\n      dup2\n        /* \"#utility.yul\":78:98   */\n      calldataload\n        /* \"#utility.yul\":69:98   */\n      swap1\n      pop\n        /* \"#utility.yul\":107:140   */\n      tag_35\n        /* \"#utility.yul\":134:139   */\n      dup2\n        /* \"#utility.yul\":107:140   */\n      tag_36\n      jump\t// in\n    tag_35:\n        /* \"#utility.yul\":7:146   */\n      swap3\n      swap2\n      pop\n      pop\n      jump\t// out\n        /* \"#utility.yul\":152:481   */\n    tag_9:\n        /* \"#utility.yul\":211:217   */\n      0x00\n        /* \"#utility.yul\":260:262   */\n      0x20\n        /* \"#utility.yul\":248:257   */\n      dup3\n        /* \"#utility.yul\":239:246   */\n      dup5\n        /* \"#utility.yul\":235:258   */\n      sub\n        /* \"#utility.yul\":231:263   */\n      slt\n        /* \"#utility.yul\":228:347   */\n      iszero\n      tag_38\n      jumpi\n        /* \"#utility.yul\":266:345   */\n      tag_39\n      tag_40\n      jump\t// in\n    tag_39:\n        /* \"#utility.yul\":228:347   */\n    tag_38:\n        /* \"#utility.yul\":386:387   */\n      0x00\n        /* \"#utility.yul\":411:464   */\n      tag_41\n        /* \"#utility.yul\":456:463   */\n      dup5\n        /* \"#utility.yul\":447:453   */\n      dup3\n        /* \"#utility.yul\":436:445   */\n      dup6\n        /* \"#utility.yul\":432:454   */\n      add\n        /* \"#utility.yul\":411:464   */\n      tag_33\n      jump\t// in\n    tag_41:\n        /* \"#utility.yul\":401:464   */\n      swap2\n      pop\n        /* \"#utility.yul\":357:474   */\n      pop\n        /* \"#utility.yul\":152:481   */\n      swap3\n      swap2\n      pop\n      pop\n      jump\t// out\n        /* \"#utility.yul\":487:605   */\n    tag_42:\n        /* \"#utility.yul\":574:598   */\n      tag_44\n        /* \"#utility.yul\":592:597   */\n      dup2\n        /* \"#utility.yul\":574:598   */\n      tag_45\n      jump\t// in\n    tag_44:\n        /* \"#utility.yul\":569:572   */\n      dup3\n        /* \"#utility.yul\":562:599   */\n      mstore\n        /* \"#utility.yul\":487:605   */\n      pop\n      pop\n      jump\t// out\n        /* \"#utility.yul\":611:976   */\n    tag_46:\n        /* \"#utility.yul\":753:756   */\n      0x00\n        /* \"#utility.yul\":774:840   */\n      tag_48\n        /* \"#utility.yul\":838:839   */\n      0x09\n        /* \"#utility.yul\":833:836   */\n      dup4\n        /* \"#utility.yul\":774:840   */\n      tag_49\n      jump\t// in\n    tag_48:\n        /* \"#utility.yul\":767:840   */\n      swap2\n      pop\n        /* \"#utility.yul\":849:942   */\n      tag_50\n        /* \"#utility.yul\":938:941   */\n      dup3\n        /* \"#utility.yul\":849:942   */\n      tag_51\n      jump\t// in\n    tag_50:\n        /* \"#utility.yul\":967:969   */\n      0x20\n        /* \"#utility.yul\":962:965   */\n      dup3\n        /* \"#utility.yul\":958:970   */\n      add\n        /* \"#utility.yul\":951:970   */\n      swap1\n      pop\n        /* \"#utility.yul\":611:976   */\n      swap2\n      swap1\n      pop\n      jump\t// out\n        /* \"#utility.yul\":982:1347   */\n    tag_52:\n        /* \"#utility.yul\":1124:1127   */\n      0x00\n        /* \"#utility.yul\":1145:1211   */\n      tag_54\n        /* \"#utility.yul\":1209:1210   */\n      0x07\n        /* \"#utility.yul\":1204:1207   */\n      dup4\n        /* \"#utility.yul\":1145:1211   */\n      tag_49\n      jump\t// in\n    tag_54:\n        /* \"#utility.yul\":1138:1211   */\n      swap2\n      pop\n        /* \"#utility.yul\":1220:1313   */\n      tag_55\n        /* \"#utility.yul\":1309:1312   */\n      dup3\n        /* \"#utility.yul\":1220:1313   */\n      tag_56\n      jump\t// in\n    tag_55:\n        /* \"#utility.yul\":1338:1340   */\n      0x20\n        /* \"#utility.yul\":1333:1336   */\n      dup3\n        /* \"#utility.yul\":1329:1341   */\n      add\n        /* \"#utility.yul\":1322:1341   */\n      swap1\n      pop\n        /* \"#utility.yul\":982:1347   */\n      swap2\n      swap1\n      pop\n      jump\t// out\n        /* \"#utility.yul\":1353:1575   */\n    tag_16:\n        /* \"#utility.yul\":1446:1450   */\n      0x00\n        /* \"#utility.yul\":1484:1486   */\n      0x20\n        /* \"#utility.yul\":1473:1482   */\n      dup3\n        /* \"#utility.yul\":1469:1487   */\n      add\n        /* \"#utility.yul\":1461:1487   */\n      swap1\n      pop\n        /* \"#utility.yul\":1497:1568   */\n      tag_58\n        /* \"#utility.yul\":1565:1566   */\n      0x00\n        /* \"#utility.yul\":1554:1563   */\n      dup4\n        /* \"#utility.yul\":1550:1567   */\n      add\n        /* \"#utility.yul\":1541:1547   */\n      dup5\n        /* \"#utility.yul\":1497:1568   */\n      tag_42\n      jump\t// in\n    tag_58:\n        /* \"#utility.yul\":1353:1575   */\n      swap3\n      swap2\n      pop\n      pop\n      jump\t// out\n        /* \"#utility.yul\":1581:2000   */\n    tag_22:\n        /* \"#utility.yul\":1747:1751   */\n      0x00\n        /* \"#utility.yul\":1785:1787   */\n      0x20\n        /* \"#utility.yul\":1774:1783   */\n      dup3\n        /* \"#utility.yul\":1770:1788   */\n      add\n        /* \"#utility.yul\":1762:1788   */\n      swap1\n      pop\n        /* \"#utility.yul\":1834:1843   */\n      dup2\n        /* \"#utility.yul\":1828:1832   */\n      dup2\n        /* \"#utility.yul\":1824:1844   */\n      sub\n        /* \"#utility.yul\":1820:1821   */\n      0x00\n        /* \"#utility.yul\":1809:1818   */\n      dup4\n        /* \"#utility.yul\":1805:1822   */\n      add\n        /* \"#utility.yul\":1798:1845   */\n      mstore\n        /* \"#utility.yul\":1862:1993   */\n      tag_60\n        /* \"#utility.yul\":1988:1992   */\n      dup2\n        /* \"#utility.yul\":1862:1993   */\n      tag_46\n      jump\t// in\n    tag_60:\n        /* \"#utility.yul\":1854:1993   */\n      swap1\n      pop\n        /* \"#utility.yul\":1581:2000   */\n      swap2\n      swap1\n      pop\n      jump\t// out\n        /* \"#utility.yul\":2006:2425   */\n    tag_26:\n        /* \"#utility.yul\":2172:2176   */\n      0x00\n        /* \"#utility.yul\":2210:2212   */\n      0x20\n        /* \"#utility.yul\":2199:2208   */\n      dup3\n        /* \"#utility.yul\":2195:2213   */\n      add\n        /* \"#utility.yul\":2187:2213   */\n      swap1\n      pop\n        /* \"#utility.yul\":2259:2268   */\n      dup2\n        /* \"#utility.yul\":2253:2257   */\n      dup2\n        /* \"#utility.yul\":2249:2269   */\n      sub\n        /* \"#utility.yul\":2245:2246   */\n      0x00\n        /* \"#utility.yul\":2234:2243   */\n      dup4\n        /* \"#utility.yul\":2230:2247   */\n      add\n        /* \"#utility.yul\":2223:2270   */\n      mstore\n        /* \"#utility.yul\":2287:2418   */\n      tag_62\n        /* \"#utility.yul\":2413:2417   */\n      dup2\n        /* \"#utility.yul\":2287:2418   */\n      tag_52\n      jump\t// in\n    tag_62:\n        /* \"#utility.yul\":2279:2418   */\n      swap1\n      pop\n        /* \"#utility.yul\":2006:2425   */\n      swap2\n      swap1\n      pop\n      jump\t// out\n        /* \"#utility.yul\":2512:2681   */\n    tag_49:\n        /* \"#utility.yul\":2596:2607   */\n      0x00\n        /* \"#utility.yul\":2630:2636   */\n      dup3\n        /* \"#utility.yul\":2625:2628   */\n      dup3\n        /* \"#utility.yul\":2618:2637   */\n      mstore\n        /* \"#utility.yul\":2670:2674   */\n      0x20\n        /* \"#utility.yul\":2665:2668   */\n      dup3\n        /* \"#utility.yul\":2661:2675   */\n      add\n        /* \"#utility.yul\":2646:2675   */\n      swap1\n      pop\n        /* \"#utility.yul\":2512:2681   */\n      swap3\n      swap2\n      pop\n      pop\n      jump\t// out\n        /* \"#utility.yul\":2687:2783   */\n    tag_45:\n        /* \"#utility.yul\":2724:2731   */\n      0x00\n        /* \"#utility.yul\":2753:2777   */\n      tag_67\n        /* \"#utility.yul\":2771:2776   */\n      dup3\n        /* \"#utility.yul\":2753:2777   */\n      tag_68\n      jump\t// in\n    tag_67:\n        /* \"#utility.yul\":2742:2777   */\n      swap1\n      pop\n        /* \"#utility.yul\":2687:2783   */\n      swap2\n      swap1\n      pop\n      jump\t// out\n        /* \"#utility.yul\":2789:2915   */\n    tag_68:\n        /* \"#utility.yul\":2826:2833   */\n      0x00\n        /* \"#utility.yul\":2866:2908   */\n      0xffffffffffffffffffffffffffffffffffffffff\n        /* \"#utility.yul\":2859:2864   */\n      dup3\n        /* \"#utility.yul\":2855:2909   */\n      and\n        /* \"#utility.yul\":2844:2909   */\n      swap1\n      pop\n        /* \"#utility.yul\":2789:2915   */\n      swap2\n      swap1\n      pop\n      jump\t// out\n        /* \"#utility.yul\":3044:3161   */\n    tag_40:\n        /* \"#utility.yul\":3153:3154   */\n      0x00\n        /* \"#utility.yul\":3150:3151   */\n      dup1\n        /* \"#utility.yul\":3143:3155   */\n      revert\n        /* \"#utility.yul\":3167:3326   */\n    tag_51:\n        /* \"#utility.yul\":3307:3318   */\n      0x6e6f74206f776e65720000000000000000000000000000000000000000000000\n        /* \"#utility.yul\":3303:3304   */\n      0x00\n        /* \"#utility.yul\":3295:3301   */\n      dup3\n        /* \"#utility.yul\":3291:3305   */\n      add\n        /* \"#utility.yul\":3284:3319   */\n      mstore\n        /* \"#utility.yul\":3167:3326   */\n      pop\n      jump\t// out\n        /* \"#utility.yul\":3332:3489   */\n    tag_56:\n        /* \"#utility.yul\":3472:3481   */\n      0x696e76616c696400000000000000000000000000000000000000000000000000\n        /* \"#utility.yul\":3468:3469   */\n      0x00\n        /* \"#utility.yul\":3460:3466   */\n      dup3\n        /* \"#utility.yul\":3456:3470   */\n      add\n        /* \"#utility.yul\":3449:3482   */\n      mstore\n        /* \"#utility.yul\":3332:3489   */\n      pop\n      jump\t// out\n        /* \"#utility.yul\":3495:3617   */\n    tag_36:\n        /* \"#utility.yul\":3568:3592   */\n      tag_76\n        /* \"#utility.yul\":3586:3591   */\n      dup2\n        /* \"#utility.yul\":3568:3592   */\n      tag_45\n      jump\t// in\n    tag_76:\n        /* \"#utility.yul\":3561:3566   */\n      dup2\n        /* \"#utility.yul\":3558:3593   */\n      eq\n        /* \"#utility.yul\":3548:3611   */\n      tag_77\n      jumpi\n        /* \"#utility.yul\":3607:3608   */\n      0x00\n        /* \"#utility.yul\":3604:3605   */\n      dup1\n        /* \"#utility.yul\":3597:3609   */\n      revert\n        /* \"#utility.yul\":3548:3611   */\n    tag_77:\n        /* \"#utility.yul\":3495:3617   */\n      pop\n      jump\t// out\n\n    auxdata: 0xa264697066735822122099eba0550a3058feafae35ff1410b9bb032afb35b1fd4cbbc504a0dc5f9a2df164736f6c63430008070033\n}\n",
				"bytecode": {
					"linkReferences": {},
					"object": "608060405234801561001057600080fd5b50336000806101000a81548173ffffffffffffffffffffffffffffffffffffffff021916908373ffffffffffffffffffffffffffffffffffffffff16021790555061046f806100606000396000f3fe608060405234801561001057600080fd5b506004361061004c5760003560e01c806313af40351461005157806353dae5091461006d5780638da5cb5b14610077578063efa1140414610095575b600080fd5b61006b600480360381019061006691906102ab565b61009f565b005b6100756101e0565b005b61007f610270565b60405161008c919061032d565b60405180910390f35b61009d610294565b005b60008054906101000a900473ffffffffffffffffffffffffffffffffffffffff1673ffffffffffffffffffffffffffffffffffffffff163373ffffffffffffffffffffffffffffffffffffffff161461012d576040517f08c379a000000000000000000000000000000000000000000000000000000000815260040161012490610348565b60405180910390fd5b600073ffffffffffffffffffffffffffffffffffffffff168173ffffffffffffffffffffffffffffffffffffffff16141561019d576040517f08c379a000000000000000000000000000000000000000000000000000000000815260040161019490610368565b60405180910390fd5b806000806101000a81548173ffffffffffffffffffffffffffffffffffffffff021916908373ffffffffffffffffffffffffffffffffffffffff16021790555050565b60008054906101000a900473ffffffffffffffffffffffffffffffffffffffff1673ffffffffffffffffffffffffffffffffffffffff163373ffffffffffffffffffffffffffffffffffffffff161461026e576040517f08c379a000000000000000000000000000000000000000000000000000000000815260040161026590610348565b60405180910390fd5b565b60008054906101000a900473ffffffffffffffffffffffffffffffffffffffff1681565b565b6000813590506102a581610422565b92915050565b6000602082840312156102c1576102c06103cb565b5b60006102cf84828501610296565b91505092915050565b6102e181610399565b82525050565b60006102f4600983610388565b91506102ff826103d0565b602082019050919050565b6000610317600783610388565b9150610322826103f9565b602082019050919050565b600060208201905061034260008301846102d8565b92915050565b60006020820190508181036000830152610361816102e7565b9050919050565b600060208201905081810360008301526103818161030a565b9050919050565b600082825260208201905092915050565b60006103a4826103ab565b9050919050565b600073ffffffffffffffffffffffffffffffffffffffff82169050919050565b600080fd5b7f6e6f74206f776e65720000000000000000000000000000000000000000000000600082015250565b7f696e76616c696400000000000000000000000000000000000000000000000000600082015250565b61042b81610399565b811461043657600080fd5b5056fea264697066735822122099eba0550a3058feafae35ff1410b9bb032afb35b1fd4cbbc504a0dc5f9a2df164736f6c63430008070033",
					"opcodes": "PUSH1 0x80 PUSH1 0x40 MSTORE CALLVALUE DUP1 ISZERO PUSH2 0x10 JUMPI PUSH1 0x0 DUP1 REVERT JUMPDEST POP CALLER PUSH1 0x0 DUP1 PUSH2 0x100 EXP DUP2 SLOAD DUP2 PUSH20 0xFFFFFFFFFFFFFFFFFFFFFFFFFFFFFFFFFFFFFFFF MUL NOT AND SWAP1 DUP4 PUSH20 0xFFFFFFFFFFFFFFFFFFFFFFFFFFFFFFFFFFFFFFFF AND MUL OR SWAP1 SSTORE POP PUSH2 0x46F DUP1 PUSH2 0x60 PUSH1 0x0 CODECOPY PUSH1 0x0 RETURN INVALID PUSH1 0x80 PUSH1 0x40 MSTORE CALLVALUE DUP1 ISZERO PUSH2 0x10 JUMPI PUSH1 0x0 DUP1 REVERT JUMPDEST POP PUSH1 0x4 CALLDATASIZE LT PUSH2 0x4C JUMPI PUSH1 0x0 CALLDATALOAD PUSH1 0xE0 SHR DUP1 PUSH4 0x13AF4035 EQ PUSH2 0x51 JUMPI DUP1 PUSH4 0x53DAE509 EQ PUSH2 0x6D JUMPI DUP1 PUSH4 0x8DA5CB5B EQ PUSH2 0x77 JUMPI DUP1 PUSH4 0xEFA11404 EQ PUSH2 0x95 JUMPI JUMPDEST PUSH1 0x0 DUP1 REVERT JUMPDEST PUSH2 0x6B PUSH1 0x4 DUP1 CALLDATASIZE SUB DUP2 ADD SWAP1 PUSH2 0x66 SWAP2 SWAP1 PUSH2 0x2AB JUMP JUMPDEST PUSH2 0x9F JUMP JUMPDEST STOP JUMPDEST PUSH2 0x75 PUSH2 0x1E0 JUMP JUMPDEST STOP JUMPDEST PUSH2 0x7F PUSH2 0x270 JUMP JUMPDEST PUSH1 0x40 MLOAD PUSH2 0x8C SWAP2 SWAP1 PUSH2 0x32D JUMP JUMPDEST PUSH1 0x40 MLOAD DUP1 SWAP2 SUB SWAP1 RETURN JUMPDEST PUSH2 0x9D PUSH2 0x294 JUMP JUMPDEST STOP JUMPDEST PUSH1 0x0 DUP1 SLOAD SWAP1 PUSH2 0x100 EXP SWAP1 DIV PUSH20 0xFFFFFFFFFFFFFFFFFFFFFFFFFFFFFFFFFFFFFFFF AND PUSH20 0xFFFFFFFFFFFFFFFFFFFFFFFFFFFFFFFFFFFFFFFF AND CALLER PUSH20 0xFFFFFFFFFFFFFFFFFFFFFFFFFFFFFFFFFFFFFFFF AND EQ PUSH2 0x12D JUMPI PUSH1 0x40 MLOAD PUSH32 0x8C379A000000000000000000000000000000000000000000000000000000000 DUP2 MSTORE PUSH1 0x4 ADD PUSH2 0x124 SWAP1 PUSH2 0x348 JUMP JUMPDEST PUSH1 0x40 MLOAD DUP1 SWAP2 SUB SWAP1 REVERT JUMPDEST PUSH1 0x0 PUSH20 0xFFFFFFFFFFFFFFFFFFFFFFFFFFFFFFFFFFFFFFFF AND DUP2 PUSH20 0xFFFFFFFFFFFFFFFFFFFFFFFFFFFFFFFFFFFFFFFF AND EQ ISZERO PUSH2 0x19D JUMPI PUSH1 0x40 MLOAD PUSH32 0x8C379A000000000000000000000000000000000000000000000000000000000 DUP2 MSTORE PUSH1 0x4 ADD PUSH2 0x194 SWAP1 PUSH2 0x368 JUMP JUMPDEST PUSH1 0x40 MLOAD DUP1 SWAP2 SUB SWAP1 REVERT JUMPDEST DUP1 PUSH1 0x0 DUP1 PUSH2 0x100 EXP DUP2 SLOAD DUP2 PUSH20 0xFFFFFFFFFFFFFFFFFFFFFFFFFFFFFFFFFFFFFFFF MUL NOT AND SWAP1 DUP4 PUSH20 0xFFFFFFFFFFFFFFFFFFFFFFFFFFFFFFFFFFFFFFFF AND MUL OR SWAP1 SSTORE POP POP JUMP JUMPDEST PUSH1 0x0 DUP1 SLOAD SWAP1 PUSH2 0x100 EXP SWAP1 DIV PUSH20 0xFFFFFFFFFFFFFFFFFFFFFFFFFFFFFFFFFFFFFFFF AND PUSH20 0xFFFFFFFFFFFFFFFFFFFFFFFFFFFFFFFFFFFFFFFF AND CALLER PUSH20 0xFFFFFFFFFFFFFFFFFFFFFFFFFFFFFFFFFFFFFFFF AND EQ PUSH2 0x26E JUMPI PUSH1 0x40 MLOAD PUSH32 0x8C379A000000000000000000000000000000000000000000000000000000000 DUP2 MSTORE PUSH1 0x4 ADD PUSH2 0x265 SWAP1 PUSH2 0x348 JUMP JUMPDEST PUSH1 0x40 MLOAD DUP1 SWAP2 SUB SWAP1 REVERT JUMPDEST JUMP JUMPDEST PUSH1 0x0 DUP1 SLOAD SWAP1 PUSH2 0x100 EXP SWAP1 DIV PUSH20 0xFFFFFFFFFFFFFFFFFFFFFFFFFFFFFFFFFFFFFFFF AND DUP2 JUMP JUMPDEST JUMP JUMPDEST PUSH1 0x0 DUP2 CALLDATALOAD SWAP1 POP PUSH2 0x2A5 DUP2 PUSH2 0x422 JUMP JUMPDEST SWAP3 SWAP2 POP POP JUMP JUMPDEST PUSH1 0x0 PUSH1 0x20 DUP3 DUP5 SUB SLT ISZERO PUSH2 0x2C1 JUMPI PUSH2 0x2C0 PUSH2 0x3CB JUMP JUMPDEST JUMPDEST PUSH1 0x0 PUSH2 0x2CF DUP5 DUP3 DUP6 ADD PUSH2 0x296 JUMP JUMPDEST SWAP2 POP POP SWAP3 SWAP2 POP POP JUMP JUMPDEST PUSH2 0x2E1 DUP2 PUSH2 0x399 JUMP JUMPDEST DUP3 MSTORE POP POP JUMP JUMPDEST PUSH1 0x0 PUSH2 0x2F4 PUSH1 0x9 DUP4 PUSH2 0x388 JUMP JUMPDEST SWAP2 POP PUSH2 0x2FF DUP3 PUSH2 0x3D0 JUMP JUMPDEST PUSH1 0x20 DUP3 ADD SWAP1 POP SWAP2 SWAP1 POP JUMP JUMPDEST PUSH1 0x0 PUSH2 0x317 PUSH1 0x7 DUP4 PUSH2 0x388 JUMP JUMPDEST SWAP2 POP PUSH2 0x322 DUP3 PUSH2 0x3F9 JUMP JUMPDEST PUSH1 0x20 DUP3 ADD SWAP1 POP SWAP2 SWAP1 POP JUMP JUMPDEST PUSH1 0x0 PUSH1 0x20 DUP3 ADD SWAP1 POP PUSH2 0x342 PUSH1 0x0 DUP4 ADD DUP5 PUSH2 0x2D8 JUMP JUMPDEST SWAP3 SWAP2 POP POP JUMP JUMPDEST PUSH1 0x0 PUSH1 0x20 DUP3 ADD SWAP1 POP DUP2 DUP2 SUB PUSH1 0x0 DUP4 ADD MSTORE PUSH2 0x361 DUP2 PUSH2 0x2E7 JUMP JUMPDEST SWAP1 POP SWAP2 SWAP1 POP JUMP JUMPDEST PUSH1 0x0 PUSH1 0x20 DUP3 ADD SWAP1 POP DUP2 DUP2 SUB PUSH1 0x0 DUP4 ADD MSTORE PUSH2 0x381 DUP2 PUSH2 0x30A JUMP JUMPDEST SWAP1 POP SWAP2 SWAP1 POP JUMP JUMPDEST PUSH1 0x0 DUP3 DUP3 MSTORE PUSH1 0x20 DUP3 ADD SWAP1 POP SWAP3 SWAP2 POP POP JUMP JUMPDEST PUSH1 0x0 PUSH2 0x3A4 DUP3 PUSH2 0x3AB JUMP JUMPDEST SWAP1 POP SWAP2 SWAP1 POP JUMP JUMPDEST PUSH1 0x0 PUSH20 0xFFFFFFFFFFFFFFFFFFFFFFFFFFFFFFFFFFFFFFFF DUP3 AND SWAP1 POP SWAP2 SWAP1 POP JUMP JUMPDEST PUSH1 0x0 DUP1 REVERT JUMPDEST PUSH32 0x6E6F74206F776E65720000000000000000000000000000000000000000000000 PUSH1 0x0 DUP3 ADD MSTORE POP JUMP JUMPDEST PUSH32 0x696E76616C696400000000000000000000000000000000000000000000000000 PUSH1 0x0 DUP3 ADD MSTORE POP JUMP JUMPDEST PUSH2 0x42B DUP2 PUSH2 0x399 JUMP JUMPDEST DUP2 EQ PUSH2 0x436 JUMPI PUSH1 0x0 DUP1 REVERT JUMPDEST POP JUMP INVALID LOG2 PUSH5 0x6970667358 0x22 SLT KECCAK256 SWAP10 0xEB LOG0 SSTORE EXP ADDRESS PC INVALID 0xAF 0xAE CALLDATALOAD SELFDESTRUCT EQ LT 0xB9 0xBB SUB 0x2A 0xFB CALLDATALOAD 0xB1 REVERT 0x4C 0xBB 0xC5 DIV LOG0 0xDC 0x5F SWAP11 0x2D CALL PUSH5 0x736F6C6343 STOP ADDMOD SMOD STOP CALLER "
				},
				"gasEstimates": {
					"creation": {
						"codeDepositCost": "227000",
						"executionCost": "24535",
						"totalCost": "251535"
					},
					"external": {
						"anyOneAccess()": "188",
						"onlyAccessOwner()": "2600",
						"owner()": "2533",
						"setOwner(address)": "26905"
					}
				},
				"methodIdentifiers": {
					"anyOneAccess()": "efa11404",
					"onlyAccessOwner()": "53dae509",
					"owner()": "8da5cb5b",
					"setOwner(address)": "13af4035"
				}
			},
			"storageLayout": {
				"storage": [
					{
						"astId": 4,
						"contract": "firstc.sol:ownable",
						"label": "owner",
						"offset": 0,
						"slot": "0",
						"type": "t_address"
					}
				],
				"types": {
					"t_address": {
						"encoding": "inplace",
						"label": "address",
						"numberOfBytes": "20"
					}
				}
			},
			"userdoc": {
				"kind": "user",
				"methods": {},
				"version": 1
			}
		}
	}
}